###############################################################################
#
# IAR ANSI C/C++ Compiler V7.40.7.9843/W32 for ARM        18/Dec/2019  15:12:37
# Copyright 1999-2015 IAR Systems AB.
#
#    Cpu mode     =  thumb
#    Endian       =  little
#    Source file  =  
#        C:\Users\Ian\Desktop\Projects\hub project\hub\clang\source\cal.c
#    Command line =  
#        "C:\Users\Ian\Desktop\Projects\hub project\hub\clang\source\cal.c" -D
#        RESISTANCE_TRIMS -D AFE_TRIMS -D USB_TRIMS -D NDEBUG -lC
#        "C:\Users\Ian\Desktop\Projects\hub
#        project\hub\toolchain\iar\project\Release\List" -o
#        "C:\Users\Ian\Desktop\Projects\hub
#        project\hub\toolchain\iar\project\Release\Obj" --endian=little
#        --cpu=Cortex-M0 -e --fpu=None --dlib_config "C:\Program Files
#        (x86)\IAR Systems\Embedded Workbench
#        7.2\arm\INC\c\DLib_Config_Normal.h" -I
#        "C:\Users\Ian\Desktop\Projects\hub
#        project\hub\toolchain\iar\project\..\..\..\clang\include\" -I
#        "C:\Users\Ian\Desktop\Projects\hub
#        project\hub\toolchain\iar\project\..\..\..\clang\include\superior\clough\"
#        -I "C:\Users\Ian\Desktop\Projects\hub
#        project\hub\toolchain\iar\project\..\..\..\clang\include\superior\sfr\"
#        -I "C:\Users\Ian\Desktop\Projects\hub
#        project\hub\toolchain\iar\project\..\..\..\clang\include\superior\" -I
#        "C:\Users\Ian\Desktop\Projects\hub
#        project\hub\toolchain\iar\project\..\SEGGER_RTT_V640\RTT\" -I
#        "C:\Users\Ian\Desktop\Projects\hub
#        project\hub\toolchain\iar\project\..\..\..\clang\source\FreeRTOS\" -Oh
#        -I "C:\Program Files (x86)\IAR Systems\Embedded Workbench
#        7.2\arm\CMSIS\Include\"
#    List file    =  
#        C:\Users\Ian\Desktop\Projects\hub
#        project\hub\toolchain\iar\project\Release\List\cal.lst
#    Object file  =  
#        C:\Users\Ian\Desktop\Projects\hub
#        project\hub\toolchain\iar\project\Release\Obj\cal.o
#
###############################################################################

C:\Users\Ian\Desktop\Projects\hub project\hub\clang\source\cal.c
      1          /** @file cal.c
      2           *  @brief Board calibration
      3           *
      4           *  This transfers calibration data from non-volatile memory to
      5           *  trim memory.
      6           *
      7           *  @author Ian Board
      8           *  @bug No known bugs.
      9           */
     10          
     11          #include "superior.h"

   \                                 In section .text, align 2, keep-with-next
   \   static __interwork __softfp void USBAFE_setCDRTrims(uint8_t)
   \                     USBAFE_setCDRTrims: (+1)
   \   00000000   0xB538             PUSH     {R3-R5,LR}
   \   00000002   0x2800             CMP      R0,#+0
   \   00000004   0xD005             BEQ      ??USBAFE_setCDRTrims_0
   \   00000006   0x2802             CMP      R0,#+2
   \   00000008   0xD030             BEQ      ??USBAFE_setCDRTrims_1
   \   0000000A   0xD328             BCC      ??USBAFE_setCDRTrims_2
   \   0000000C   0x2803             CMP      R0,#+3
   \   0000000E   0xD034             BEQ      ??USBAFE_setCDRTrims_3
   \   00000010   0xE03A             B        ??USBAFE_setCDRTrims_4
   \                     ??USBAFE_setCDRTrims_0: (+1)
   \   00000012   0x....             LDR      R0,??DataTable2  ;; 0x50016000
   \   00000014   0x....             LDR      R1,??DataTable2_1  ;; 0x50016500
   \   00000016   0x....             LDR      R2,??DataTable2_2  ;; 0x50013050
   \                     ??USBAFE_setCDRTrims_5: (+1)
   \   00000018   0x2311             MOVS     R3,#+17
   \   0000001A   0x466C             MOV      R4,SP
   \   0000001C   0x7023             STRB     R3,[R4, #+0]
   \   0000001E   0x1D83             ADDS     R3,R0,#+6
   \   00000020   0x7825             LDRB     R5,[R4, #0]
   \   00000022   0x701D             STRB     R5,[R3, #0]
   \   00000024   0x8843             LDRH     R3,[R0, #+2]
   \   00000026   0x24F0             MOVS     R4,#+240
   \   00000028   0x0224             LSLS     R4,R4,#+8        ;; #+61440
   \   0000002A   0x431C             ORRS     R4,R4,R3
   \   0000002C   0x8044             STRH     R4,[R0, #+2]
   \   0000002E   0x8843             LDRH     R3,[R0, #+2]
   \   00000030   0x....             LDR      R4,??DataTable2_3  ;; 0xffc7
   \   00000032   0x401C             ANDS     R4,R4,R3
   \   00000034   0x2318             MOVS     R3,#+24
   \   00000036   0x4323             ORRS     R3,R3,R4
   \   00000038   0x8043             STRH     R3,[R0, #+2]
   \   0000003A   0x2301             MOVS     R3,#+1
   \   0000003C   0x8844             LDRH     R4,[R0, #+2]
   \   0000003E   0x....             LDR      R5,??DataTable2_4  ;; 0xfff8
   \   00000040   0x4025             ANDS     R5,R5,R4
   \   00000042   0x431D             ORRS     R5,R5,R3
   \   00000044   0x8045             STRH     R5,[R0, #+2]
   \   00000046   0x4668             MOV      R0,SP
   \   00000048   0x7003             STRB     R3,[R0, #+0]
   \   0000004A   0x1DC9             ADDS     R1,R1,#+7
   \   0000004C   0x7803             LDRB     R3,[R0, #0]
   \   0000004E   0x700B             STRB     R3,[R1, #0]
   \   00000050   0x2053             MOVS     R0,#+83
   \   00000052   0x4669             MOV      R1,SP
   \   00000054   0x7008             STRB     R0,[R1, #+0]
   \   00000056   0x4668             MOV      R0,SP
   \   00000058   0x7801             LDRB     R1,[R0, #0]
   \   0000005A   0x7011             STRB     R1,[R2, #0]
   \   0000005C   0xBD31             POP      {R0,R4,R5,PC}    ;; return
   \                     ??USBAFE_setCDRTrims_2: (+1)
   \   0000005E   0x....             LDR      R0,??DataTable2  ;; 0x50016000
   \   00000060   0x3010             ADDS     R0,R0,#+16
   \   00000062   0x....             LDR      R1,??DataTable2_1  ;; 0x50016500
   \   00000064   0x3108             ADDS     R1,R1,#+8
   \   00000066   0x....             LDR      R2,??DataTable2_2  ;; 0x50013050
   \   00000068   0x1D12             ADDS     R2,R2,#+4
   \   0000006A   0xE7D5             B        ??USBAFE_setCDRTrims_5
   \                     ??USBAFE_setCDRTrims_1: (+1)
   \   0000006C   0x....             LDR      R0,??DataTable2  ;; 0x50016000
   \   0000006E   0x3020             ADDS     R0,R0,#+32
   \   00000070   0x....             LDR      R1,??DataTable2_1  ;; 0x50016500
   \   00000072   0x3110             ADDS     R1,R1,#+16
   \   00000074   0x....             LDR      R2,??DataTable2_2  ;; 0x50013050
   \   00000076   0x3208             ADDS     R2,R2,#+8
   \   00000078   0xE7CE             B        ??USBAFE_setCDRTrims_5
   \                     ??USBAFE_setCDRTrims_3: (+1)
   \   0000007A   0x....             LDR      R0,??DataTable2  ;; 0x50016000
   \   0000007C   0x3030             ADDS     R0,R0,#+48
   \   0000007E   0x....             LDR      R1,??DataTable2_1  ;; 0x50016500
   \   00000080   0x3118             ADDS     R1,R1,#+24
   \   00000082   0x....             LDR      R2,??DataTable2_2  ;; 0x50013050
   \   00000084   0x320C             ADDS     R2,R2,#+12
   \   00000086   0xE7C7             B        ??USBAFE_setCDRTrims_5
   \                     ??USBAFE_setCDRTrims_4: (+1)
   \   00000088   0x.... 0x....      BL       dbgTrapErr
   \   0000008C   0xBD31             POP      {R0,R4,R5,PC}
     12          #include "nvmtrim.h"
     13          #include "hw.h"
     14          #include "trim_defaults.h"
     15          #include "cal.h"
     16          
     17          extern uint32_t SystemCoreClock;
     18          
     19          
     20          /** @brief retrieves trim memory so it can be examined in a debugger.
     21           *        
     22           *
     23           *  For debug so the contents of trim memory can be examined with a debugger.
     24           *
     25           *  @param None
     26           *  @return Void.
     27           */

   \                                 In section .text, align 2, keep-with-next
     28          void v_Dump_Trim_Memory(void)
     29          {
   \                     v_Dump_Trim_Memory: (+1)
   \   00000000   0xB430             PUSH     {R4,R5}
     30          #pragma diag_suppress = Pe550  // suppress warning that values aren't used - just for debug
     31            static uint32_t u32_Value;
     32            static uint32_t u32_Flash_Value;
     33            
     34            // Basic trims
     35            u32_Value = TRIMMEMORY_SFRS->TRIMDATA1.BGTRIM3V;
   \   00000002   0x....             LDR      R0,??DataTable2_5  ;; 0x50018003
   \   00000004   0x1C40             ADDS     R0,R0,#+1
   \   00000006   0x6801             LDR      R1,[R0, #+0]
   \   00000008   0x1E40             SUBS     R0,R0,#+1
     36            u32_Value = TRIMMEMORY_SFRS->TRIMDATA0.V2ITRIM;
   \   0000000A   0x7801             LDRB     R1,[R0, #+0]
     37            u32_Value = TRIMMEMORY_SFRS->TRIMDATA1.ICOSCTRIM3V;
   \   0000000C   0x7881             LDRB     R1,[R0, #+2]
     38            
     39            // Termination resistance trims
     40            u32_Value = USBAFE_UP->RCTRIM.RTERMTRIM;
   \   0000000E   0x....             LDR      R1,??DataTable2_6  ;; 0x50016001
   \   00000010   0x780A             LDRB     R2,[R1, #+0]
     41            u32_Value = USBAFE_DN1->RCTRIM.RTERMTRIM;
   \   00000012   0x7C0A             LDRB     R2,[R1, #+16]
     42            u32_Value = USBAFE_DN2->RCTRIM.RTERMTRIM;
   \   00000014   0x....             LDR      R2,??DataTable2_7  ;; 0x50016021
   \   00000016   0x7813             LDRB     R3,[R2, #+0]
     43            u32_Value = USBAFE_DN3->RCTRIM.RTERMTRIM;
   \   00000018   0x7C13             LDRB     R3,[R2, #+16]
     44            
     45            // QM Gain and offset
     46            u32_Value = HKADCDGE_SFRS->NODE00CTRLC.ADCWORD;
   \   0000001A   0x....             LDR      R3,??DataTable2_8  ;; 0x50014008
   \   0000001C   0x881B             LDRH     R3,[R3, #+0]
     47            
     48            // AFE Trims
     49            u32_Value = TYPEC1_SFRS->AFETRIM1.TRIMRD1;
   \   0000001E   0x....             LDR      R3,??DataTable2_9  ;; 0x50017040
   \   00000020   0x781C             LDRB     R4,[R3, #+0]
     50            u32_Value = TYPEC2_SFRS->AFETRIM1.TRIMRD1;
   \   00000022   0x....             LDR      R4,??DataTable2_10  ;; 0x50017440
   \   00000024   0x7825             LDRB     R5,[R4, #+0]
     51            u32_Value = TYPEC1_SFRS->AFETRIM1.TRIMRD2;
   \   00000026   0x781D             LDRB     R5,[R3, #+0]
     52            u32_Value = TYPEC2_SFRS->AFETRIM1.TRIMRD2;
   \   00000028   0x7825             LDRB     R5,[R4, #+0]
     53            u32_Value = TYPEC1_SFRS->AFETRIM3.TRIMHCUR;
   \   0000002A   0x7A1B             LDRB     R3,[R3, #+8]
     54            u32_Value = TYPEC2_SFRS->AFETRIM3.TRIMHCUR;
   \   0000002C   0x7A23             LDRB     R3,[R4, #+8]
     55            
     56            // 1.5V digital supply trim
     57            u32_Value = TRIMMEMORY_SFRS->TRIMDATA1.DIGREGR3V = V_DIG_SUPPLY_TRIM.VALUE; 
   \   0000002E   0x....             LDR      R3,??DataTable2_11  ;; 0x27f19
   \   00000030   0x781B             LDRB     R3,[R3, #+0]
   \   00000032   0x071B             LSLS     R3,R3,#+28
   \   00000034   0x0F1B             LSRS     R3,R3,#+28
   \   00000036   0x7844             LDRB     R4,[R0, #+1]
   \   00000038   0x25F0             MOVS     R5,#+240
   \   0000003A   0x4025             ANDS     R5,R5,R4
   \   0000003C   0x432B             ORRS     R3,R3,R5
   \   0000003E   0x7043             STRB     R3,[R0, #+1]
     58          
     59            // Squelch Detector
     60            u32_Value = USBAFE_UP->HSTRIM.HSSQLCHTRIM;
   \   00000040   0x1C49             ADDS     R1,R1,#+1
   \   00000042   0x8808             LDRH     R0,[R1, #+0]
     61            u32_Value = USBAFE_DN1->HSTRIM.HSSQLCHTRIM;
   \   00000044   0x8A08             LDRH     R0,[R1, #+16]
     62            u32_Value = USBAFE_DN2->HSTRIM.HSSQLCHTRIM;
   \   00000046   0x1C52             ADDS     R2,R2,#+1
   \   00000048   0x8810             LDRH     R0,[R2, #+0]
     63            u32_Value = USBAFE_DN3->HSTRIM.HSSQLCHTRIM;
   \   0000004A   0x8A10             LDRH     R0,[R2, #+16]
     64            
     65            // Disconnect detector
     66            u32_Value = USBAFE_UP->HSTRIM.HSDSCNTRIM;
   \   0000004C   0x8808             LDRH     R0,[R1, #+0]
     67            u32_Value = USBAFE_DN1->HSTRIM.HSDSCNTRIM;
   \   0000004E   0x8A08             LDRH     R0,[R1, #+16]
     68            u32_Value = USBAFE_DN2->HSTRIM.HSDSCNTRIM;
   \   00000050   0x8810             LDRH     R0,[R2, #+0]
     69            u32_Value = USBAFE_DN3->HSTRIM.HSDSCNTRIM;
   \   00000052   0x8A10             LDRH     R0,[R2, #+16]
     70          
     71            // Tx Voltage
     72            u32_Value = USBAFE_DN1->FSLSTRIM.FSLSSE0FLTPWTRIM;
   \   00000054   0x8A48             LDRH     R0,[R1, #+18]
   \   00000056   0x1E49             SUBS     R1,R1,#+1
     73            u32_Value = USBAFE_DN2->FSLSTRIM.FSLSSE0FLTPWTRIM;
   \   00000058   0x8850             LDRH     R0,[R2, #+2]
     74            u32_Value = USBAFE_DN3->FSLSTRIM.FSLSSE0FLTPWTRIM;
   \   0000005A   0x8A50             LDRH     R0,[R2, #+18]
   \   0000005C   0x1E52             SUBS     R2,R2,#+1
     75            
     76            // CDR Sync Trim
     77            u32_Value = USBAFE_UP->CDRTRIM.CDRSYNCTRIM;
   \   0000005E   0x7948             LDRB     R0,[R1, #+5]
     78            u32_Value = USBAFE_DN1->CDRTRIM.CDRSYNCTRIM;
   \   00000060   0x7D48             LDRB     R0,[R1, #+21]
     79            u32_Value = USBAFE_DN2->CDRTRIM.CDRSYNCTRIM;
   \   00000062   0x7950             LDRB     R0,[R2, #+5]
     80            u32_Value = USBAFE_DN3->CDRTRIM.CDRSYNCTRIM;
   \   00000064   0x7D50             LDRB     R0,[R2, #+21]
     81            
     82            // FSLS Falling edge trim
     83            u32_Value = USBAFE_UP->FSLSTRIM.FSLSSE0FLTFETRIM;
   \   00000066   0x1C49             ADDS     R1,R1,#+1
   \   00000068   0x8848             LDRH     R0,[R1, #+2]
     84            u32_Value = USBAFE_DN1->FSLSTRIM.FSLSSE0FLTFETRIM;
   \   0000006A   0x8A48             LDRH     R0,[R1, #+18]
     85            u32_Value = USBAFE_DN2->FSLSTRIM.FSLSSE0FLTFETRIM;
   \   0000006C   0x1C52             ADDS     R2,R2,#+1
   \   0000006E   0x8850             LDRH     R0,[R2, #+2]
     86            u32_Value = USBAFE_DN3->FSLSTRIM.FSLSSE0FLTFETRIM;
   \   00000070   0x8A50             LDRH     R0,[R2, #+18]
     87            u32_Flash_Value = FSTS_FE_UFP_TRIM.VALUE;
     88           
     89            // Fast Acquisition
     90            u32_Value = USBAFECDR_SFRS->UFPTRIM.FASTAQ;
   \   00000072   0x....             LDR      R0,??DataTable2_12  ;; 0x50016507
   \   00000074   0x7801             LDRB     R1,[R0, #+0]
     91            u32_Value = USBAFECDR_SFRS->DFP1TRIM.FASTAQ;
   \   00000076   0x7A01             LDRB     R1,[R0, #+8]
     92            u32_Value = USBAFECDR_SFRS->DFP2TRIM.FASTAQ;
   \   00000078   0x7C01             LDRB     R1,[R0, #+16]
     93            u32_Value = USBAFECDR_SFRS->DFP3TRIM.FASTAQ;
   \   0000007A   0x7E00             LDRB     R0,[R0, #+24]
     94            
     95            // Extended Sync
     96            u32_Value = USBHUB->PHYTRIM.UP.SYNCEXT;
   \   0000007C   0x....             LDR      R0,??DataTable2_2  ;; 0x50013050
   \   0000007E   0x7801             LDRB     R1,[R0, #+0]
     97            u32_Value = USBHUB->PHYTRIM.DN1.SYNCEXT;
   \   00000080   0x7901             LDRB     R1,[R0, #+4]
     98            u32_Value = USBHUB->PHYTRIM.DN2.SYNCEXT;
   \   00000082   0x7A01             LDRB     R1,[R0, #+8]
     99            u32_Value = USBHUB->PHYTRIM.DN3.SYNCEXT;
   \   00000084   0x7B00             LDRB     R0,[R0, #+12]
    100          }
   \   00000086   0xBC30             POP      {R4,R5}
   \   00000088   0x4770             BX       LR               ;; return

   \                                 In section .bss, align 4
   \   00000000                      DS8 4

   \                                 In section .bss, align 4
   \   00000000                      DS8 4
    101          
    102          /** @brief Basic Trims
    103           *        
    104           *
    105           *  Trims for bandgap reference, V2I, the low speed oscillator and 1.5V supply.
    106           *  These get applied regardless of the cal version.
    107           *
    108           *  @param None
    109           *  @return Void.
    110           */

   \                                 In section .text, align 2, keep-with-next
    111          void v_Basic_Trims_From_Flash(void)
    112          {
   \                     v_Basic_Trims_From_Flash: (+1)
   \   00000000   0xB430             PUSH     {R4,R5}
    113              TRIMMEMORY_SFRS->TRIMDATA1.BGTRIM3V = NVM_BG_TRIM.VALUE; // Bandgap reference
   \   00000002   0x210F             MOVS     R1,#+15
   \   00000004   0x....             LDR      R0,??DataTable2_13  ;; 0x27f09
   \   00000006   0x7803             LDRB     R3,[R0, #+0]
   \   00000008   0x400B             ANDS     R3,R3,R1
   \   0000000A   0x....             LDR      R2,??DataTable2_5  ;; 0x50018003
   \   0000000C   0x1C52             ADDS     R2,R2,#+1
   \   0000000E   0x6814             LDR      R4,[R2, #+0]
   \   00000010   0x....             LDR      R5,??DataTable2_14  ;; 0xfffffe1f
   \   00000012   0x4025             ANDS     R5,R5,R4
   \   00000014   0x015B             LSLS     R3,R3,#+5
   \   00000016   0x432B             ORRS     R3,R3,R5
   \   00000018   0x6013             STR      R3,[R2, #+0]
   \   0000001A   0x1E52             SUBS     R2,R2,#+1
    114              TRIMMEMORY_SFRS->TRIMDATA0.V2ITRIM = NVM_V2I_TRIM.VALUE; // V2I
   \   0000001C   0x7843             LDRB     R3,[R0, #+1]
   \   0000001E   0x065B             LSLS     R3,R3,#+25
   \   00000020   0x0E5B             LSRS     R3,R3,#+25
   \   00000022   0x7814             LDRB     R4,[R2, #+0]
   \   00000024   0x0864             LSRS     R4,R4,#+1
   \   00000026   0x415B             ADCS     R3,R3,R3
   \   00000028   0x7013             STRB     R3,[R2, #+0]
    115              TRIMMEMORY_SFRS->TRIMDATA1.ICOSCTRIM3V = NVM_ICOSC_TRIM.VALUE; // ICOSC
   \   0000002A   0x7883             LDRB     R3,[R0, #+2]
   \   0000002C   0x069B             LSLS     R3,R3,#+26
   \   0000002E   0x7894             LDRB     R4,[R2, #+2]
   \   00000030   0x2581             MOVS     R5,#+129
   \   00000032   0x4025             ANDS     R5,R5,R4
   \   00000034   0x0E5B             LSRS     R3,R3,#+25
   \   00000036   0x432B             ORRS     R3,R3,R5
   \   00000038   0x7093             STRB     R3,[R2, #+2]
    116          
    117              
    118              // Termination resistance
    119              USBAFE_UP->RCTRIM.RTERMTRIM = NVM_USB45_TRIM.VALUE; 
   \   0000003A   0x78C3             LDRB     R3,[R0, #+3]
   \   0000003C   0x400B             ANDS     R3,R3,R1
   \   0000003E   0x22F0             MOVS     R2,#+240
   \   00000040   0x....             LDR      R4,??DataTable2_6  ;; 0x50016001
   \   00000042   0x7825             LDRB     R5,[R4, #+0]
   \   00000044   0x4015             ANDS     R5,R5,R2
   \   00000046   0x432B             ORRS     R3,R3,R5
   \   00000048   0x7023             STRB     R3,[R4, #+0]
    120              USBAFE_DN1->RCTRIM.RTERMTRIM = NVM_USB45_TRIM.VALUE;
   \   0000004A   0x78C3             LDRB     R3,[R0, #+3]
   \   0000004C   0x400B             ANDS     R3,R3,R1
   \   0000004E   0x7C25             LDRB     R5,[R4, #+16]
   \   00000050   0x4015             ANDS     R5,R5,R2
   \   00000052   0x432B             ORRS     R3,R3,R5
   \   00000054   0x7423             STRB     R3,[R4, #+16]
    121              USBAFE_DN2->RCTRIM.RTERMTRIM = NVM_USB45_TRIM.VALUE;
   \   00000056   0x78C3             LDRB     R3,[R0, #+3]
   \   00000058   0x400B             ANDS     R3,R3,R1
   \   0000005A   0x3420             ADDS     R4,R4,#+32
   \   0000005C   0x7825             LDRB     R5,[R4, #+0]
   \   0000005E   0x4015             ANDS     R5,R5,R2
   \   00000060   0x432B             ORRS     R3,R3,R5
   \   00000062   0x7023             STRB     R3,[R4, #+0]
    122              USBAFE_DN3->RCTRIM.RTERMTRIM = NVM_USB45_TRIM.VALUE;
   \   00000064   0x78C3             LDRB     R3,[R0, #+3]
   \   00000066   0x4019             ANDS     R1,R1,R3
   \   00000068   0x7C23             LDRB     R3,[R4, #+16]
   \   0000006A   0x401A             ANDS     R2,R2,R3
   \   0000006C   0x4311             ORRS     R1,R1,R2
   \   0000006E   0x7421             STRB     R1,[R4, #+16]
    123              
    124              // PTAT
    125              HKADCDGE_SFRS->NODE00CTRLC.ADCWORD = NVM_VPTAT_TRIM.VALUE;
   \   00000070   0x1C40             ADDS     R0,R0,#+1
   \   00000072   0x8880             LDRH     R0,[R0, #+4]
   \   00000074   0x0500             LSLS     R0,R0,#+20
   \   00000076   0x0D00             LSRS     R0,R0,#+20
   \   00000078   0x....             LDR      R1,??DataTable2_8  ;; 0x50014008
   \   0000007A   0x880A             LDRH     R2,[R1, #+0]
   \   0000007C   0x23F0             MOVS     R3,#+240
   \   0000007E   0x021B             LSLS     R3,R3,#+8        ;; #+61440
   \   00000080   0x4013             ANDS     R3,R3,R2
   \   00000082   0x4318             ORRS     R0,R0,R3
   \   00000084   0x8008             STRH     R0,[R1, #+0]
    126              
    127          }
   \   00000086   0xBC30             POP      {R4,R5}
   \   00000088   0x4770             BX       LR               ;; return
    128          
    129          
    130          
    131          /** @brief Transfer trims from non-volatile memory to trim memory.
    132           *        
    133           *
    134           *  Transfers the trims established at ATE to trim memory.
    135           *
    136           *  @param None
    137           *  @return Void.
    138           */

   \                                 In section .text, align 2, keep-with-next
    139          void v_Apply_Trims_From_Flash(void)
    140          {
   \                     v_Apply_Trims_From_Flash: (+1)
   \   00000000   0xB5F0             PUSH     {R4-R7,LR}
   \   00000002   0xB087             SUB      SP,SP,#+28
    141          volatile uint32_t u32_Dummy;
    142          Chip_Info_t Chip_Info;
    143          
    144              v_Get_Chip_Info( &Chip_Info );
   \   00000004   0xA801             ADD      R0,SP,#+4
   \   00000006   0x.... 0x....      BL       v_Get_Chip_Info
   \   0000000A   0x....             LDR      R0,??DataTable3  ;; 0x27f10
   \   0000000C   0x7801             LDRB     R1,[R0, #+0]
   \   0000000E   0x0649             LSLS     R1,R1,#+25
   \   00000010   0x0F49             LSRS     R1,R1,#+29
   \   00000012   0x....             LDR      R2,??DataTable3_1  ;; 0x50015029
   \   00000014   0x7813             LDRB     R3,[R2, #+0]
   \   00000016   0x248F             MOVS     R4,#+143
   \   00000018   0x401C             ANDS     R4,R4,R3
   \   0000001A   0x0109             LSLS     R1,R1,#+4
   \   0000001C   0x4321             ORRS     R1,R1,R4
   \   0000001E   0x7011             STRB     R1,[R2, #+0]
   \   00000020   0xA901             ADD      R1,SP,#+4
   \   00000022   0x7A89             LDRB     R1,[R1, #+10]
   \   00000024   0x2904             CMP      R1,#+4
   \   00000026   0xD103             BNE      ??v_Apply_Trims_From_Flash_0
   \   00000028   0x7A41             LDRB     R1,[R0, #+9]
   \   0000002A   0x0709             LSLS     R1,R1,#+28
   \   0000002C   0x0F09             LSRS     R1,R1,#+28
   \   0000002E   0xE000             B        ??v_Apply_Trims_From_Flash_1
   \                     ??v_Apply_Trims_From_Flash_0: (+1)
   \   00000030   0x2107             MOVS     R1,#+7
   \                     ??v_Apply_Trims_From_Flash_1: (+1)
   \   00000032   0x....             LDR      R2,??DataTable3_2  ;; 0x50018004
   \   00000034   0x7813             LDRB     R3,[R2, #+0]
   \   00000036   0x24F0             MOVS     R4,#+240
   \   00000038   0x401C             ANDS     R4,R4,R3
   \   0000003A   0x4321             ORRS     R1,R1,R4
   \   0000003C   0x7011             STRB     R1,[R2, #+0]
   \   0000003E   0x....             LDR      R1,??DataTable3_3  ;; 0x50016507
   \   00000040   0x....             LDR      R2,??DataTable3_4  ;; 0x50016026
   \   00000042   0x23CF             MOVS     R3,#+207
   \   00000044   0x....             LDR      R4,??DataTable3_5  ;; 0x50016002
   \   00000046   0xAD01             ADD      R5,SP,#+4
   \   00000048   0x7AAD             LDRB     R5,[R5, #+10]
   \   0000004A   0x2D04             CMP      R5,#+4
   \   0000004C   0xD000             BEQ      .+4
   \   0000004E   0xE0DB             B        ??v_Apply_Trims_From_Flash_2
    145           
    146              // Current measuring adc trims
    147              CMADC_SFRS->CONFIG.TRIM = NVM_CMBIAS_TRIM.VALUE;   //QM Current
    148              //CMADC_SFRS->CONFIG.SWC  QM Gain
    149          
    150                
    151          #ifdef USE_PD
    152          #pragma message(" *** PD in use *** ")
    153              
    154              // Power up and reset hardware
    155              CRG_SFRS->USBTYPEC.CCP1RSTENA = 1;
    156              CRG_SFRS->USBTYPEC.CCP2RSTENA = 1;
    157              
    158              CRG_SFRS->USBTYPEC.CCP1RSTPULSE = 1; 
    159              CRG_SFRS->USBTYPEC.CCP2RSTPULSE = 1; 
    160            
    161              // wait for power up and reset to complete
    162              for( u32_Dummy = 0; u32_Dummy < 1000; u32_Dummy++ );
    163            
    164              // Turn on AFE to apply trims
    165              TYPEC1_SFRS->POWER.PWR = 1;
    166              TYPEC2_SFRS->POWER.PWR = 1;
    167          
    168              // Wait to allow AFE to come up
    169              for( u32_Dummy = 0; u32_Dummy < 1000; u32_Dummy++ );
    170            
    171              // Bring out of reset
    172              TYPEC1_SFRS->TYPECCTL3.RESETPHY = 1;
    173              TYPEC2_SFRS->TYPECCTL3.RESETPHY = 1;
    174          
    175              // Short wait after coming out of reset
    176              for( u32_Dummy = 0; u32_Dummy < 1000; u32_Dummy++ );
    177            
    178              // Apply trims from flash
    179              
    180              // CC Port RD
    181              TYPEC1_SFRS->AFETRIM1.TRIMRD1 = NVM_CCRESISTANCE_TRIM.VALUE; // RD 
    182              TYPEC1_SFRS->AFETRIM1.TRIMRD2 = NVM_CCRESISTANCE_TRIM.VALUE;
    183              TYPEC2_SFRS->AFETRIM1.TRIMRD1 = NVM_CCRESISTANCE_TRIM.VALUE;
    184              TYPEC2_SFRS->AFETRIM1.TRIMRD2 = NVM_CCRESISTANCE_TRIM.VALUE;
    185              
    186              // P1 and P2 pullup
    187              TYPEC1_SFRS->AFETRIM3.TRIMHCUR = NVM_CCCURRENT_TRIM.VALUE;
    188              TYPEC2_SFRS->AFETRIM3.TRIMHCUR =  NVM_CCCURRENT_TRIM.VALUE;
    189              
    190          #else
    191          #pragma message("!!! PD not enabled, do not access PD related ports !!!")
    192              
    193          #endif
    194                 
    195              // 1.5V digital supply trim 
    196              TRIMMEMORY_SFRS->TRIMDATA1.DIGREGR3V = Chip_Info.u8_Cal_Version == 4 ? V_DIG_SUPPLY_TRIM.VALUE : DIG_SUPPLY_1p5_DEFAULT;  
    197          
    198          #ifdef USB_TRIMS
    199              if( Chip_Info.u8_Cal_Version == 4 )
    200              {
    201                  // Squelch
    202                  USBAFE_UP->HSTRIM.HSSQLCHTRIM = SQUELCH_UFP_TRIM.VALUE;           
   \   00000050   0x7A85             LDRB     R5,[R0, #+10]
   \   00000052   0x076D             LSLS     R5,R5,#+29
   \   00000054   0x0F6D             LSRS     R5,R5,#+29
   \   00000056   0x8826             LDRH     R6,[R4, #+0]
   \   00000058   0x....             LDR      R7,??DataTable3_6  ;; 0xfff8
   \   0000005A   0x4037             ANDS     R7,R7,R6
   \   0000005C   0x433D             ORRS     R5,R5,R7
   \   0000005E   0x8025             STRH     R5,[R4, #+0]
    203                  USBAFE_DN1->HSTRIM.HSSQLCHTRIM = SQUELCH_DFP1_TRIM.VALUE; 
   \   00000060   0x7AC5             LDRB     R5,[R0, #+11]
   \   00000062   0x076D             LSLS     R5,R5,#+29
   \   00000064   0x0F6D             LSRS     R5,R5,#+29
   \   00000066   0x8A26             LDRH     R6,[R4, #+16]
   \   00000068   0x....             LDR      R7,??DataTable3_6  ;; 0xfff8
   \   0000006A   0x4037             ANDS     R7,R7,R6
   \   0000006C   0x433D             ORRS     R5,R5,R7
   \   0000006E   0x8225             STRH     R5,[R4, #+16]
    204                  USBAFE_DN2->HSTRIM.HSSQLCHTRIM = SQUELCH_DFP2_TRIM.VALUE; 
   \   00000070   0x7B05             LDRB     R5,[R0, #+12]
   \   00000072   0x076D             LSLS     R5,R5,#+29
   \   00000074   0x0F6D             LSRS     R5,R5,#+29
   \   00000076   0x8C26             LDRH     R6,[R4, #+32]
   \   00000078   0x....             LDR      R7,??DataTable3_6  ;; 0xfff8
   \   0000007A   0x4037             ANDS     R7,R7,R6
   \   0000007C   0x433D             ORRS     R5,R5,R7
   \   0000007E   0x8425             STRH     R5,[R4, #+32]
    205                  USBAFE_DN3->HSTRIM.HSSQLCHTRIM = SQUELCH_DFP3_TRIM.VALUE; 
   \   00000080   0x7B45             LDRB     R5,[R0, #+13]
   \   00000082   0x076D             LSLS     R5,R5,#+29
   \   00000084   0x0F6D             LSRS     R5,R5,#+29
   \   00000086   0x466E             MOV      R6,SP
   \   00000088   0x8035             STRH     R5,[R6, #+0]
   \   0000008A   0x8996             LDRH     R6,[R2, #+12]
   \   0000008C   0x....             LDR      R5,??DataTable3_6  ;; 0xfff8
   \   0000008E   0x4035             ANDS     R5,R5,R6
   \   00000090   0x466E             MOV      R6,SP
   \   00000092   0x8836             LDRH     R6,[R6, #+0]
   \   00000094   0x432E             ORRS     R6,R6,R5
   \   00000096   0x8196             STRH     R6,[R2, #+12]
    206          
    207                  // Disconnect threshold
    208                  USBAFE_UP->HSTRIM.HSDSCNTRIM = DISCONNECT_DET_UFP_TRIM.VALUE; 
   \   00000098   0x7B85             LDRB     R5,[R0, #+14]
   \   0000009A   0x076E             LSLS     R6,R5,#+29
   \   0000009C   0x8827             LDRH     R7,[R4, #+0]
   \   0000009E   0x....             LDR      R5,??DataTable4  ;; 0xffc7
   \   000000A0   0x403D             ANDS     R5,R5,R7
   \   000000A2   0x0EB6             LSRS     R6,R6,#+26
   \   000000A4   0x432E             ORRS     R6,R6,R5
   \   000000A6   0x8026             STRH     R6,[R4, #+0]
    209                  USBAFE_DN1->HSTRIM.HSDSCNTRIM = DISCONNECT_DET_DFP1_TRIM.VALUE; 
   \   000000A8   0x7BC5             LDRB     R5,[R0, #+15]
   \   000000AA   0x076E             LSLS     R6,R5,#+29
   \   000000AC   0x8A27             LDRH     R7,[R4, #+16]
   \   000000AE   0x....             LDR      R5,??DataTable4  ;; 0xffc7
   \   000000B0   0x403D             ANDS     R5,R5,R7
   \   000000B2   0x0EB6             LSRS     R6,R6,#+26
   \   000000B4   0x432E             ORRS     R6,R6,R5
   \   000000B6   0x8226             STRH     R6,[R4, #+16]
    210                  USBAFE_DN2->HSTRIM.HSDSCNTRIM = DISCONNECT_DET_DFP2_TRIM.VALUE;  
   \   000000B8   0x7C05             LDRB     R5,[R0, #+16]
   \   000000BA   0x076E             LSLS     R6,R5,#+29
   \   000000BC   0x8C27             LDRH     R7,[R4, #+32]
   \   000000BE   0x....             LDR      R5,??DataTable4  ;; 0xffc7
   \   000000C0   0x403D             ANDS     R5,R5,R7
   \   000000C2   0x0EB6             LSRS     R6,R6,#+26
   \   000000C4   0x432E             ORRS     R6,R6,R5
   \   000000C6   0x8426             STRH     R6,[R4, #+32]
    211                  USBAFE_DN3->HSTRIM.HSDSCNTRIM = DISCONNECT_DET_DFP3_TRIM.VALUE; 
   \   000000C8   0x7C45             LDRB     R5,[R0, #+17]
   \   000000CA   0x076D             LSLS     R5,R5,#+29
   \   000000CC   0x0F6D             LSRS     R5,R5,#+29
   \   000000CE   0x466E             MOV      R6,SP
   \   000000D0   0x8035             STRH     R5,[R6, #+0]
   \   000000D2   0x8996             LDRH     R6,[R2, #+12]
   \   000000D4   0x....             LDR      R5,??DataTable4  ;; 0xffc7
   \   000000D6   0x4035             ANDS     R5,R5,R6
   \   000000D8   0x466E             MOV      R6,SP
   \   000000DA   0x8836             LDRH     R6,[R6, #+0]
   \   000000DC   0x00F6             LSLS     R6,R6,#+3
   \   000000DE   0x432E             ORRS     R6,R6,R5
   \   000000E0   0x8196             STRH     R6,[R2, #+12]
    212          
    213                  // CDP voltage setting
    214                  USBAFE_DN1->FSLSTRIM.FSLSSE0FLTPWTRIM = CDP_V_DFP1_TRIM.VALUE;  
   \   000000E2   0x7C85             LDRB     R5,[R0, #+18]
   \   000000E4   0x076E             LSLS     R6,R5,#+29
   \   000000E6   0x8A67             LDRH     R7,[R4, #+18]
   \   000000E8   0x....             LDR      R5,??DataTable4_1  ;; 0xf0ff
   \   000000EA   0x403D             ANDS     R5,R5,R7
   \   000000EC   0x0D76             LSRS     R6,R6,#+21
   \   000000EE   0x432E             ORRS     R6,R6,R5
   \   000000F0   0x8266             STRH     R6,[R4, #+18]
    215                  USBAFE_DN2->FSLSTRIM.FSLSSE0FLTPWTRIM = CDP_V_DFP2_TRIM.VALUE;
   \   000000F2   0x7CC5             LDRB     R5,[R0, #+19]
   \   000000F4   0x076E             LSLS     R6,R5,#+29
   \   000000F6   0x8C67             LDRH     R7,[R4, #+34]
   \   000000F8   0x....             LDR      R5,??DataTable4_1  ;; 0xf0ff
   \   000000FA   0x403D             ANDS     R5,R5,R7
   \   000000FC   0x0D76             LSRS     R6,R6,#+21
   \   000000FE   0x432E             ORRS     R6,R6,R5
   \   00000100   0x8466             STRH     R6,[R4, #+34]
    216                  USBAFE_DN3->FSLSTRIM.FSLSSE0FLTPWTRIM = CDP_V_DFP3_TRIM.VALUE;
   \   00000102   0x7D05             LDRB     R5,[R0, #+20]
   \   00000104   0x076E             LSLS     R6,R5,#+29
   \   00000106   0x89D7             LDRH     R7,[R2, #+14]
   \   00000108   0x....             LDR      R5,??DataTable4_1  ;; 0xf0ff
   \   0000010A   0x403D             ANDS     R5,R5,R7
   \   0000010C   0x0D76             LSRS     R6,R6,#+21
   \   0000010E   0x432E             ORRS     R6,R6,R5
   \   00000110   0x81D6             STRH     R6,[R2, #+14]
    217                  
    218                  // FSLS Falling edge trim
    219                  USBAFE_UP->FSLSTRIM.FSLSSE0FLTFETRIM = FSTS_FE_UFP_TRIM.VALUE;  
   \   00000112   0x250F             MOVS     R5,#+15
   \   00000114   0x7E46             LDRB     R6,[R0, #+25]
   \   00000116   0x402E             ANDS     R6,R6,R5
   \   00000118   0x8867             LDRH     R7,[R4, #+2]
   \   0000011A   0x053F             LSLS     R7,R7,#+20
   \   0000011C   0x0D3F             LSRS     R7,R7,#+20
   \   0000011E   0x0336             LSLS     R6,R6,#+12
   \   00000120   0x433E             ORRS     R6,R6,R7
   \   00000122   0x8066             STRH     R6,[R4, #+2]
    220                  USBAFE_DN1->FSLSTRIM.FSLSSE0FLTFETRIM = FSTS_FE_DFP1_TRIM.VALUE;  
   \   00000124   0x7E86             LDRB     R6,[R0, #+26]
   \   00000126   0x402E             ANDS     R6,R6,R5
   \   00000128   0x8A67             LDRH     R7,[R4, #+18]
   \   0000012A   0x053F             LSLS     R7,R7,#+20
   \   0000012C   0x0D3F             LSRS     R7,R7,#+20
   \   0000012E   0x0336             LSLS     R6,R6,#+12
   \   00000130   0x433E             ORRS     R6,R6,R7
   \   00000132   0x8266             STRH     R6,[R4, #+18]
    221                  USBAFE_DN2->FSLSTRIM.FSLSSE0FLTFETRIM = FSTS_FE_DFP2_TRIM.VALUE;
   \   00000134   0x7EC6             LDRB     R6,[R0, #+27]
   \   00000136   0x402E             ANDS     R6,R6,R5
   \   00000138   0x8C67             LDRH     R7,[R4, #+34]
   \   0000013A   0x053F             LSLS     R7,R7,#+20
   \   0000013C   0x0D3F             LSRS     R7,R7,#+20
   \   0000013E   0x0336             LSLS     R6,R6,#+12
   \   00000140   0x433E             ORRS     R6,R6,R7
   \   00000142   0x8466             STRH     R6,[R4, #+34]
    222                  USBAFE_DN3->FSLSTRIM.FSLSSE0FLTFETRIM = FSTS_FE_DFP3_TRIM.VALUE;
   \   00000144   0x7F06             LDRB     R6,[R0, #+28]
   \   00000146   0x4035             ANDS     R5,R5,R6
   \   00000148   0x89D6             LDRH     R6,[R2, #+14]
   \   0000014A   0x0536             LSLS     R6,R6,#+20
   \   0000014C   0x0D36             LSRS     R6,R6,#+20
   \   0000014E   0x032D             LSLS     R5,R5,#+12
   \   00000150   0x4335             ORRS     R5,R5,R6
   \   00000152   0x81D5             STRH     R5,[R2, #+14]
    223          
    224                  // CDR Sync
    225                  USBAFE_UP->CDRTRIM.CDRSYNCTRIM = CDR_SYNC_TRIM_1.VALUE;           
   \   00000154   0x2503             MOVS     R5,#+3
   \   00000156   0x7D46             LDRB     R6,[R0, #+21]
   \   00000158   0x402E             ANDS     R6,R6,R5
   \   0000015A   0x7927             LDRB     R7,[R4, #+4]
   \   0000015C   0x401F             ANDS     R7,R7,R3
   \   0000015E   0x0136             LSLS     R6,R6,#+4
   \   00000160   0x433E             ORRS     R6,R6,R7
   \   00000162   0x7126             STRB     R6,[R4, #+4]
    226                  USBAFE_DN1->CDRTRIM.CDRSYNCTRIM = CDR_SYNC_TRIM_2.VALUE;
   \   00000164   0x7D86             LDRB     R6,[R0, #+22]
   \   00000166   0x402E             ANDS     R6,R6,R5
   \   00000168   0x7D27             LDRB     R7,[R4, #+20]
   \   0000016A   0x401F             ANDS     R7,R7,R3
   \   0000016C   0x0136             LSLS     R6,R6,#+4
   \   0000016E   0x433E             ORRS     R6,R6,R7
   \   00000170   0x7526             STRB     R6,[R4, #+20]
    227                  USBAFE_DN2->CDRTRIM.CDRSYNCTRIM = CDR_SYNC_TRIM_3.VALUE;
   \   00000172   0x7DC4             LDRB     R4,[R0, #+23]
   \   00000174   0x402C             ANDS     R4,R4,R5
   \   00000176   0x7816             LDRB     R6,[R2, #+0]
   \   00000178   0x401E             ANDS     R6,R6,R3
   \   0000017A   0x0124             LSLS     R4,R4,#+4
   \   0000017C   0x4334             ORRS     R4,R4,R6
   \   0000017E   0x7014             STRB     R4,[R2, #+0]
    228                  USBAFE_DN3->CDRTRIM.CDRSYNCTRIM = CDR_SYNC_TRIM_4.VALUE;
   \   00000180   0x7E04             LDRB     R4,[R0, #+24]
   \   00000182   0x402C             ANDS     R4,R4,R5
   \   00000184   0x7C16             LDRB     R6,[R2, #+16]
   \   00000186   0x401E             ANDS     R6,R6,R3
   \   00000188   0x0124             LSLS     R4,R4,#+4
   \   0000018A   0x4334             ORRS     R4,R4,R6
   \   0000018C   0x7414             STRB     R4,[R2, #+16]
    229          
    230                  // Fast acq UFP
    231                  USBAFECDR_SFRS->UFPTRIM.FASTAQ = FAST_ACQ_UFP_TRIM.VALUE;          
   \   0000018E   0x7F42             LDRB     R2,[R0, #+29]
   \   00000190   0x07D4             LSLS     R4,R2,#+31
   \   00000192   0x0FE4             LSRS     R4,R4,#+31
   \   00000194   0x22FE             MOVS     R2,#+254
   \   00000196   0x780E             LDRB     R6,[R1, #+0]
   \   00000198   0x4016             ANDS     R6,R6,R2
   \   0000019A   0x4334             ORRS     R4,R4,R6
   \   0000019C   0x700C             STRB     R4,[R1, #+0]
    232                  USBAFECDR_SFRS->DFP1TRIM.FASTAQ = FAST_ACQ_DFP1_TRIM.VALUE;
   \   0000019E   0x7F86             LDRB     R6,[R0, #+30]
   \   000001A0   0x07F4             LSLS     R4,R6,#+31
   \   000001A2   0x0FE4             LSRS     R4,R4,#+31
   \   000001A4   0x7A0E             LDRB     R6,[R1, #+8]
   \   000001A6   0x4016             ANDS     R6,R6,R2
   \   000001A8   0x4334             ORRS     R4,R4,R6
   \   000001AA   0x720C             STRB     R4,[R1, #+8]
    233                  USBAFECDR_SFRS->DFP2TRIM.FASTAQ = FAST_ACQ_DFP2_TRIM.VALUE;
   \   000001AC   0x7FC4             LDRB     R4,[R0, #+31]
   \   000001AE   0x07E0             LSLS     R0,R4,#+31
   \   000001B0   0x0FC0             LSRS     R0,R0,#+31
   \   000001B2   0x7C0C             LDRB     R4,[R1, #+16]
   \   000001B4   0x4014             ANDS     R4,R4,R2
   \   000001B6   0x4320             ORRS     R0,R0,R4
   \   000001B8   0x7408             STRB     R0,[R1, #+16]
    234                  USBAFECDR_SFRS->DFP3TRIM.FASTAQ = FAST_ACQ_DFP3_TRIM.VALUE;
   \   000001BA   0x....             LDR      R0,??DataTable4_2  ;; 0x27f30
   \   000001BC   0x7806             LDRB     R6,[R0, #+0]
   \   000001BE   0x07F4             LSLS     R4,R6,#+31
   \   000001C0   0x0FE4             LSRS     R4,R4,#+31
   \   000001C2   0x7E0E             LDRB     R6,[R1, #+24]
   \   000001C4   0x4032             ANDS     R2,R2,R6
   \   000001C6   0x4314             ORRS     R4,R4,R2
   \   000001C8   0x760C             STRB     R4,[R1, #+24]
    235          
    236                  // Extended Packet Sync
    237                  USBHUB->PHYTRIM.UP.SYNCEXT = EXT_RP_SYNC_UFP_TRIM.VALUE;
   \   000001CA   0x7841             LDRB     R1,[R0, #+1]
   \   000001CC   0x4029             ANDS     R1,R1,R5
   \   000001CE   0x....             LDR      R2,??DataTable4_3  ;; 0x50013050
   \   000001D0   0x7812             LDRB     R2,[R2, #+0]
   \   000001D2   0x401A             ANDS     R2,R2,R3
   \   000001D4   0x0109             LSLS     R1,R1,#+4
   \   000001D6   0x4311             ORRS     R1,R1,R2
   \   000001D8   0x....             LDR      R2,??DataTable4_3  ;; 0x50013050
   \   000001DA   0x7011             STRB     R1,[R2, #+0]
    238                  USBHUB->PHYTRIM.DN1.SYNCEXT = EXT_RP_SYNC_DFP1_TRIM.VALUE;
   \   000001DC   0x7881             LDRB     R1,[R0, #+2]
   \   000001DE   0x4029             ANDS     R1,R1,R5
   \   000001E0   0x7912             LDRB     R2,[R2, #+4]
   \   000001E2   0x401A             ANDS     R2,R2,R3
   \   000001E4   0x0109             LSLS     R1,R1,#+4
   \   000001E6   0x4311             ORRS     R1,R1,R2
   \   000001E8   0x....             LDR      R2,??DataTable4_3  ;; 0x50013050
   \   000001EA   0x7111             STRB     R1,[R2, #+4]
    239                  USBHUB->PHYTRIM.DN2.SYNCEXT = EXT_RP_SYNC_DFP2_TRIM.VALUE;
   \   000001EC   0x78C1             LDRB     R1,[R0, #+3]
   \   000001EE   0x4029             ANDS     R1,R1,R5
   \   000001F0   0x7A12             LDRB     R2,[R2, #+8]
   \   000001F2   0x401A             ANDS     R2,R2,R3
   \   000001F4   0x0109             LSLS     R1,R1,#+4
   \   000001F6   0x4311             ORRS     R1,R1,R2
   \   000001F8   0x....             LDR      R2,??DataTable4_3  ;; 0x50013050
   \   000001FA   0x7211             STRB     R1,[R2, #+8]
    240                  USBHUB->PHYTRIM.DN3.SYNCEXT = EXT_RP_SYNC_DFP3_TRIM.VALUE;
   \   000001FC   0x7900             LDRB     R0,[R0, #+4]
   \   000001FE   0x4005             ANDS     R5,R5,R0
   \   00000200   0x7B10             LDRB     R0,[R2, #+12]
   \   00000202   0x4003             ANDS     R3,R3,R0
   \   00000204   0x0128             LSLS     R0,R5,#+4
   \   00000206   0xE084             B        ??v_Apply_Trims_From_Flash_3
    241              }
    242              else
    243              {
    244                   // Squelch
    245                  USBAFE_UP->HSTRIM.HSSQLCHTRIM = SQUELCH_DETECTOR_DEFAULT;           
   \                     ??v_Apply_Trims_From_Flash_2: (+1)
   \   00000208   0x8820             LDRH     R0,[R4, #+0]
   \   0000020A   0x....             LDR      R5,??DataTable3_6  ;; 0xfff8
   \   0000020C   0x4005             ANDS     R5,R5,R0
   \   0000020E   0x2001             MOVS     R0,#+1
   \   00000210   0x4328             ORRS     R0,R0,R5
   \   00000212   0x8020             STRH     R0,[R4, #+0]
    246                  USBAFE_DN1->HSTRIM.HSSQLCHTRIM = SQUELCH_DETECTOR_DEFAULT; 
   \   00000214   0x8A20             LDRH     R0,[R4, #+16]
   \   00000216   0x....             LDR      R5,??DataTable3_6  ;; 0xfff8
   \   00000218   0x4005             ANDS     R5,R5,R0
   \   0000021A   0x2001             MOVS     R0,#+1
   \   0000021C   0x4328             ORRS     R0,R0,R5
   \   0000021E   0x8220             STRH     R0,[R4, #+16]
    247                  USBAFE_DN2->HSTRIM.HSSQLCHTRIM = SQUELCH_DETECTOR_DEFAULT; 
   \   00000220   0x8C20             LDRH     R0,[R4, #+32]
   \   00000222   0x....             LDR      R5,??DataTable3_6  ;; 0xfff8
   \   00000224   0x4005             ANDS     R5,R5,R0
   \   00000226   0x2001             MOVS     R0,#+1
   \   00000228   0x4328             ORRS     R0,R0,R5
   \   0000022A   0x8420             STRH     R0,[R4, #+32]
    248                  USBAFE_DN3->HSTRIM.HSSQLCHTRIM = SQUELCH_DETECTOR_DEFAULT; 
   \   0000022C   0x8990             LDRH     R0,[R2, #+12]
   \   0000022E   0x....             LDR      R5,??DataTable3_6  ;; 0xfff8
   \   00000230   0x4005             ANDS     R5,R5,R0
   \   00000232   0x2001             MOVS     R0,#+1
   \   00000234   0x4328             ORRS     R0,R0,R5
   \   00000236   0x8190             STRH     R0,[R2, #+12]
    249          
    250                  // Disconnect threshold
    251                  USBAFE_UP->HSTRIM.HSDSCNTRIM = DISCONNECT_DETECTOR_DEFAULT; 
   \   00000238   0x2018             MOVS     R0,#+24
   \   0000023A   0x8825             LDRH     R5,[R4, #+0]
   \   0000023C   0x....             LDR      R6,??DataTable4  ;; 0xffc7
   \   0000023E   0x402E             ANDS     R6,R6,R5
   \   00000240   0x4306             ORRS     R6,R6,R0
   \   00000242   0x8026             STRH     R6,[R4, #+0]
    252                  USBAFE_DN1->HSTRIM.HSDSCNTRIM = DISCONNECT_DETECTOR_DEFAULT; 
   \   00000244   0x8A25             LDRH     R5,[R4, #+16]
   \   00000246   0x....             LDR      R6,??DataTable4  ;; 0xffc7
   \   00000248   0x402E             ANDS     R6,R6,R5
   \   0000024A   0x4306             ORRS     R6,R6,R0
   \   0000024C   0x8226             STRH     R6,[R4, #+16]
    253                  USBAFE_DN2->HSTRIM.HSDSCNTRIM = DISCONNECT_DETECTOR_DEFAULT;  
   \   0000024E   0x8C25             LDRH     R5,[R4, #+32]
   \   00000250   0x....             LDR      R6,??DataTable4  ;; 0xffc7
   \   00000252   0x402E             ANDS     R6,R6,R5
   \   00000254   0x4306             ORRS     R6,R6,R0
   \   00000256   0x8426             STRH     R6,[R4, #+32]
    254                  USBAFE_DN3->HSTRIM.HSDSCNTRIM = DISCONNECT_DETECTOR_DEFAULT; 
   \   00000258   0x8995             LDRH     R5,[R2, #+12]
   \   0000025A   0x....             LDR      R6,??DataTable4  ;; 0xffc7
   \   0000025C   0x402E             ANDS     R6,R6,R5
   \   0000025E   0x4330             ORRS     R0,R0,R6
   \   00000260   0x8190             STRH     R0,[R2, #+12]
    255          
    256                  // CDP voltage setting
    257                  USBAFE_DN1->FSLSTRIM.FSLSSE0FLTPWTRIM = CDP_TX_VOLTAGE_DEFAULT;  
   \   00000262   0x2080             MOVS     R0,#+128
   \   00000264   0x00C0             LSLS     R0,R0,#+3        ;; #+1024
   \   00000266   0x8A65             LDRH     R5,[R4, #+18]
   \   00000268   0x....             LDR      R6,??DataTable4_1  ;; 0xf0ff
   \   0000026A   0x402E             ANDS     R6,R6,R5
   \   0000026C   0x4306             ORRS     R6,R6,R0
   \   0000026E   0x8266             STRH     R6,[R4, #+18]
    258                  USBAFE_DN2->FSLSTRIM.FSLSSE0FLTPWTRIM = CDP_TX_VOLTAGE_DEFAULT;
   \   00000270   0x8C65             LDRH     R5,[R4, #+34]
   \   00000272   0x....             LDR      R6,??DataTable4_1  ;; 0xf0ff
   \   00000274   0x402E             ANDS     R6,R6,R5
   \   00000276   0x4306             ORRS     R6,R6,R0
   \   00000278   0x8466             STRH     R6,[R4, #+34]
    259                  USBAFE_DN3->FSLSTRIM.FSLSSE0FLTPWTRIM = CDP_TX_VOLTAGE_DEFAULT;
   \   0000027A   0x89D5             LDRH     R5,[R2, #+14]
   \   0000027C   0x....             LDR      R6,??DataTable4_1  ;; 0xf0ff
   \   0000027E   0x402E             ANDS     R6,R6,R5
   \   00000280   0x4330             ORRS     R0,R0,R6
   \   00000282   0x81D0             STRH     R0,[R2, #+14]
    260                  
    261                  // FSLS Falling edge trim
    262                  USBAFE_UP->FSLSTRIM.FSLSSE0FLTFETRIM = FSLS_FE_DEFAULT;  
   \   00000284   0x20E0             MOVS     R0,#+224
   \   00000286   0x01C0             LSLS     R0,R0,#+7        ;; #+28672
   \   00000288   0x8865             LDRH     R5,[R4, #+2]
   \   0000028A   0x052D             LSLS     R5,R5,#+20
   \   0000028C   0x0D2D             LSRS     R5,R5,#+20
   \   0000028E   0x4305             ORRS     R5,R5,R0
   \   00000290   0x8065             STRH     R5,[R4, #+2]
    263                  USBAFE_DN1->FSLSTRIM.FSLSSE0FLTFETRIM = FSLS_FE_DEFAULT;  
   \   00000292   0x8A65             LDRH     R5,[R4, #+18]
   \   00000294   0x052D             LSLS     R5,R5,#+20
   \   00000296   0x0D2D             LSRS     R5,R5,#+20
   \   00000298   0x4305             ORRS     R5,R5,R0
   \   0000029A   0x8265             STRH     R5,[R4, #+18]
    264                  USBAFE_DN2->FSLSTRIM.FSLSSE0FLTFETRIM = FSLS_FE_DEFAULT;
   \   0000029C   0x8C65             LDRH     R5,[R4, #+34]
   \   0000029E   0x052D             LSLS     R5,R5,#+20
   \   000002A0   0x0D2D             LSRS     R5,R5,#+20
   \   000002A2   0x4305             ORRS     R5,R5,R0
   \   000002A4   0x8465             STRH     R5,[R4, #+34]
    265                  USBAFE_DN3->FSLSTRIM.FSLSSE0FLTFETRIM = FSLS_FE_DEFAULT;
   \   000002A6   0x89D5             LDRH     R5,[R2, #+14]
   \   000002A8   0x052D             LSLS     R5,R5,#+20
   \   000002AA   0x0D2D             LSRS     R5,R5,#+20
   \   000002AC   0x4328             ORRS     R0,R0,R5
   \   000002AE   0x81D0             STRH     R0,[R2, #+14]
    266          
    267                  // CDR Sync
    268                  USBAFE_UP->CDRTRIM.CDRSYNCTRIM = CDR_SYNC_TRIM_DEFAULT;           
   \   000002B0   0x2010             MOVS     R0,#+16
   \   000002B2   0x7925             LDRB     R5,[R4, #+4]
   \   000002B4   0x401D             ANDS     R5,R5,R3
   \   000002B6   0x4305             ORRS     R5,R5,R0
   \   000002B8   0x7125             STRB     R5,[R4, #+4]
    269                  USBAFE_DN1->CDRTRIM.CDRSYNCTRIM = CDR_SYNC_TRIM_DEFAULT;
   \   000002BA   0x7D25             LDRB     R5,[R4, #+20]
   \   000002BC   0x401D             ANDS     R5,R5,R3
   \   000002BE   0x4305             ORRS     R5,R5,R0
   \   000002C0   0x7525             STRB     R5,[R4, #+20]
    270                  USBAFE_DN2->CDRTRIM.CDRSYNCTRIM = CDR_SYNC_TRIM_DEFAULT;
   \   000002C2   0x7814             LDRB     R4,[R2, #+0]
   \   000002C4   0x401C             ANDS     R4,R4,R3
   \   000002C6   0x4304             ORRS     R4,R4,R0
   \   000002C8   0x7014             STRB     R4,[R2, #+0]
    271                  USBAFE_DN3->CDRTRIM.CDRSYNCTRIM = CDR_SYNC_TRIM_DEFAULT;
   \   000002CA   0x7C14             LDRB     R4,[R2, #+16]
   \   000002CC   0x401C             ANDS     R4,R4,R3
   \   000002CE   0x4304             ORRS     R4,R4,R0
   \   000002D0   0x7414             STRB     R4,[R2, #+16]
    272                  // Fast acq UFP
    273                  USBAFECDR_SFRS->UFPTRIM.FASTAQ = FAST_ACQ_DEFAULT;          
   \   000002D2   0x780A             LDRB     R2,[R1, #+0]
   \   000002D4   0x2401             MOVS     R4,#+1
   \   000002D6   0x4314             ORRS     R4,R4,R2
   \   000002D8   0x700C             STRB     R4,[R1, #+0]
    274                  USBAFECDR_SFRS->DFP1TRIM.FASTAQ = FAST_ACQ_DEFAULT;
   \   000002DA   0x7A0A             LDRB     R2,[R1, #+8]
   \   000002DC   0x2401             MOVS     R4,#+1
   \   000002DE   0x4314             ORRS     R4,R4,R2
   \   000002E0   0x720C             STRB     R4,[R1, #+8]
    275                  USBAFECDR_SFRS->DFP2TRIM.FASTAQ = FAST_ACQ_DEFAULT;
   \   000002E2   0x7C0A             LDRB     R2,[R1, #+16]
   \   000002E4   0x2401             MOVS     R4,#+1
   \   000002E6   0x4314             ORRS     R4,R4,R2
   \   000002E8   0x740C             STRB     R4,[R1, #+16]
    276                  USBAFECDR_SFRS->DFP3TRIM.FASTAQ = FAST_ACQ_DEFAULT;
   \   000002EA   0x7E0A             LDRB     R2,[R1, #+24]
   \   000002EC   0x2401             MOVS     R4,#+1
   \   000002EE   0x4314             ORRS     R4,R4,R2
   \   000002F0   0x760C             STRB     R4,[R1, #+24]
    277          
    278                  // Extended Packet Sync
    279                  USBHUB->PHYTRIM.UP.SYNCEXT = EXT_REP_SYNC_DEFAULT;
   \   000002F2   0x....             LDR      R1,??DataTable4_3  ;; 0x50013050
   \   000002F4   0x7809             LDRB     R1,[R1, #+0]
   \   000002F6   0x4019             ANDS     R1,R1,R3
   \   000002F8   0x4301             ORRS     R1,R1,R0
   \   000002FA   0x....             LDR      R2,??DataTable4_3  ;; 0x50013050
   \   000002FC   0x7011             STRB     R1,[R2, #+0]
    280                  USBHUB->PHYTRIM.DN1.SYNCEXT = EXT_REP_SYNC_DEFAULT;
   \   000002FE   0x7911             LDRB     R1,[R2, #+4]
   \   00000300   0x4019             ANDS     R1,R1,R3
   \   00000302   0x4301             ORRS     R1,R1,R0
   \   00000304   0x7111             STRB     R1,[R2, #+4]
    281                  USBHUB->PHYTRIM.DN2.SYNCEXT = EXT_REP_SYNC_DEFAULT;
   \   00000306   0x7A11             LDRB     R1,[R2, #+8]
   \   00000308   0x4019             ANDS     R1,R1,R3
   \   0000030A   0x4301             ORRS     R1,R1,R0
   \   0000030C   0x7211             STRB     R1,[R2, #+8]
    282                  USBHUB->PHYTRIM.DN3.SYNCEXT = EXT_REP_SYNC_DEFAULT;
   \   0000030E   0x7B11             LDRB     R1,[R2, #+12]
   \   00000310   0x400B             ANDS     R3,R3,R1
   \                     ??v_Apply_Trims_From_Flash_3: (+1)
   \   00000312   0x4318             ORRS     R0,R0,R3
   \   00000314   0x7310             STRB     R0,[R2, #+12]
    283              }
    284                
    285          #endif
    286              
    287              if( Chip_Info.u8_Chip_Revision == CHIP_REVISION_C0 )
   \   00000316   0xA801             ADD      R0,SP,#+4
   \   00000318   0x7A00             LDRB     R0,[R0, #+8]
   \   0000031A   0x2820             CMP      R0,#+32
   \   0000031C   0xD106             BNE      ??v_Apply_Trims_From_Flash_4
    288              {
    289                v_Apply_C0_USB_Fixes();
   \   0000031E   0x....             LDR      R0,??DataTable6  ;; 0x50013310
   \   00000320   0x21DF             MOVS     R1,#+223
   \   00000322   0x6001             STR      R1,[R0, #+0]
   \   00000324   0x2101             MOVS     R1,#+1
   \   00000326   0x7511             STRB     R1,[R2, #+20]
   \   00000328   0x2106             MOVS     R1,#+6
   \   0000032A   0x7101             STRB     R1,[R0, #+4]
    290              }
    291          }
   \                     ??v_Apply_Trims_From_Flash_4: (+1)
   \   0000032C   0xB007             ADD      SP,SP,#+28
   \   0000032E   0xBDF0             POP      {R4-R7,PC}       ;; return
    292          
    293          /** @brief Default Trims for CDR
    294           *        
    295           *
    296           *  These are written first and establish defaults for the CDR. Some of these values may be 
    297           *  overridden by values saved in non-volatile trim memory.
    298           *
    299           *  @param None
    300           *  @return Void.
    301           */

   \                                 In section .text, align 2, keep-with-next
    302          void v_Default_CDR_Setup( void )
    303          {
   \                     v_Default_CDR_Setup: (+1)
   \   00000000   0xB570             PUSH     {R4-R6,LR}
   \   00000002   0xB082             SUB      SP,SP,#+8
    304            //////////////////////////////////////////////////////////////////////////////
    305            //AFE Performance Trim Settings:
    306            //Configured to use the reccomended values for AFE optimal performance on all ports
    307            //SET CDR, EXTENDED CDR AND PHY TRIMs
    308            //CDR: CDRTXMSKBYP=0, CDRDRBLTRIM=0, CDRSYNCTRIM=01, CDRSYNCTRIM=0, 0, 0, CDRIDLMONENA=1
    309            //Extended CDR: SQLMSK=0, FASTACQ=1 
    310            //PHY: EOI=01, SYNCEXT=01, 0, 0, WRAPDET=1, SORPFLT=1
    311            //////////////////////////////////////////////////////////////////////////////
    312            
    313            //Upstream Facing Port
    314            USBAFE_setCDRTrims(0);
   \   00000004   0x2000             MOVS     R0,#+0
   \   00000006   0x.... 0x....      BL       USBAFE_setCDRTrims
    315            
    316            //Downstream Facing Port 1
    317            USBAFE_setCDRTrims(1);
   \   0000000A   0x2001             MOVS     R0,#+1
   \   0000000C   0x.... 0x....      BL       USBAFE_setCDRTrims
   \   00000010   0x2011             MOVS     R0,#+17
   \   00000012   0x4669             MOV      R1,SP
   \   00000014   0x7008             STRB     R0,[R1, #+0]
    318            
    319            //Downstream Facing Port 2
    320            USBAFE_setCDRTrims(2);
   \   00000016   0x....             LDR      R0,??DataTable6_1  ;; 0x50016026
   \   00000018   0x780A             LDRB     R2,[R1, #0]
   \   0000001A   0x7002             STRB     R2,[R0, #0]
   \   0000001C   0x....             LDR      R1,??DataTable6_2  ;; 0x50016022
   \   0000001E   0x880A             LDRH     R2,[R1, #+0]
   \   00000020   0x23F0             MOVS     R3,#+240
   \   00000022   0x021B             LSLS     R3,R3,#+8        ;; #+61440
   \   00000024   0x4313             ORRS     R3,R3,R2
   \   00000026   0x800B             STRH     R3,[R1, #+0]
   \   00000028   0x880A             LDRH     R2,[R1, #+0]
   \   0000002A   0x....             LDR      R3,??DataTable4  ;; 0xffc7
   \   0000002C   0x4013             ANDS     R3,R3,R2
   \   0000002E   0x2218             MOVS     R2,#+24
   \   00000030   0x431A             ORRS     R2,R2,R3
   \   00000032   0x800A             STRH     R2,[R1, #+0]
   \   00000034   0x2201             MOVS     R2,#+1
   \   00000036   0x....             LDR      R3,??DataTable6_3  ;; 0xfff8
   \   00000038   0x880C             LDRH     R4,[R1, #+0]
   \   0000003A   0x401C             ANDS     R4,R4,R3
   \   0000003C   0x4314             ORRS     R4,R4,R2
   \   0000003E   0x800C             STRH     R4,[R1, #+0]
   \   00000040   0x466C             MOV      R4,SP
   \   00000042   0x7022             STRB     R2,[R4, #+0]
   \   00000044   0x....             LDR      R1,??DataTable6_4  ;; 0x50016517
   \   00000046   0x7825             LDRB     R5,[R4, #0]
   \   00000048   0x700D             STRB     R5,[R1, #0]
   \   0000004A   0x2153             MOVS     R1,#+83
   \   0000004C   0x7021             STRB     R1,[R4, #+0]
   \   0000004E   0x....             LDR      R4,??DataTable6_5  ;; 0x50013058
   \   00000050   0x466D             MOV      R5,SP
   \   00000052   0x782E             LDRB     R6,[R5, #0]
   \   00000054   0x7026             STRB     R6,[R4, #0]
    321            
    322            //Downstream Facing Port 3
    323            USBAFE_setCDRTrims(3);
   \   00000056   0x2411             MOVS     R4,#+17
   \   00000058   0x702C             STRB     R4,[R5, #+0]
   \   0000005A   0x....             LDR      R4,??DataTable6_6  ;; 0x50016036
   \   0000005C   0x782E             LDRB     R6,[R5, #0]
   \   0000005E   0x7026             STRB     R6,[R4, #0]
   \   00000060   0x8984             LDRH     R4,[R0, #+12]
   \   00000062   0x25F0             MOVS     R5,#+240
   \   00000064   0x022D             LSLS     R5,R5,#+8        ;; #+61440
   \   00000066   0x4325             ORRS     R5,R5,R4
   \   00000068   0x8185             STRH     R5,[R0, #+12]
   \   0000006A   0x8984             LDRH     R4,[R0, #+12]
   \   0000006C   0x....             LDR      R5,??DataTable4  ;; 0xffc7
   \   0000006E   0x4025             ANDS     R5,R5,R4
   \   00000070   0x2418             MOVS     R4,#+24
   \   00000072   0x432C             ORRS     R4,R4,R5
   \   00000074   0x8184             STRH     R4,[R0, #+12]
   \   00000076   0x8984             LDRH     R4,[R0, #+12]
   \   00000078   0x4023             ANDS     R3,R3,R4
   \   0000007A   0x4313             ORRS     R3,R3,R2
   \   0000007C   0x8183             STRH     R3,[R0, #+12]
   \   0000007E   0x4668             MOV      R0,SP
   \   00000080   0x7002             STRB     R2,[R0, #+0]
   \   00000082   0x....             LDR      R0,??DataTable6_7  ;; 0x5001651f
   \   00000084   0x466A             MOV      R2,SP
   \   00000086   0x7813             LDRB     R3,[R2, #0]
   \   00000088   0x7003             STRB     R3,[R0, #0]
   \   0000008A   0x4668             MOV      R0,SP
   \   0000008C   0x7001             STRB     R1,[R0, #+0]
   \   0000008E   0x....             LDR      R0,??DataTable6_8  ;; 0x5001305c
   \   00000090   0x4669             MOV      R1,SP
   \   00000092   0x780A             LDRB     R2,[R1, #0]
   \   00000094   0x7002             STRB     R2,[R0, #0]
    324            
    325          }
   \   00000096   0xBD73             POP      {R0,R1,R4-R6,PC}  ;; return
    326          
    327          /** @brief Wait for PLL to lock
    328           *        
    329           *
    330           *  Has timeout due to erratic behavior of lock indicator
    331           *
    332           *  @param None
    333           *  @return Void.
    334           */
    335          static void v_PLL_Wait( void )
    336          {
    337            volatile uint32_t u32_PLL_Lock_Count = 0;
    338            
    339            for( u32_PLL_Lock_Count = 0; u32_PLL_Lock_Count < 5000; u32_PLL_Lock_Count++ )
    340            {
    341              if( PMU->CLKCSR.PLLCLKUSABLE )
    342                break;
    343            }
    344          }
    345          
    346          /** @brief Program PLL.
    347           *        
    348           *
    349           *  Set up R, C values for PLL either from non-volatile memory stored at
    350           *  ATE or with hard-coded default values.
    351           *
    352           *  @param None
    353           *  @return Void.
    354           */
    355          static void v_Program_PLL(void)
    356          {
    357            // Grab the OST from NVR
    358            uint32_t u32_NVM_Pll_Bias_Trim = NVM_PLLBIAS_TRIM.VALUE; 
    359            u32_NVM_Pll_Bias_Trim &= 0x0F;
    360            u32_NVM_Pll_Bias_Trim |= 0xB0;
    361            PLL_SFRS->CCR0.BYTE = u32_NVM_Pll_Bias_Trim; 
    362            
    363            #ifdef USB_PLL_FLASH_VALUES
    364          #pragma message("***PLL values initialized from flash***")
    365            PLL_SFRS->CCR0.BYTE = *(volatile uint8_t *)0x27F35;
    366            PLL_SFRS->CCR0.BYTE = *(volatile uint8_t *)0x27F36;
    367            PLL_SFRS->CCR0.BYTE = *(volatile uint8_t *)0x27F37;
    368            PLL_SFRS->CCR0.BYTE = *(volatile uint8_t *)0x27F38;
    369          #else
    370          #pragma message("***PLL values initialized with hard-coded defaults***")
    371            PLL_SFRS->CCR0.BYTE = 0x52;
    372            PLL_SFRS->CCR0.BYTE = 0x63;
    373            PLL_SFRS->CCR0.BYTE = 0x73;
    374            PLL_SFRS->CCR0.BYTE = 0x83;
    375          #endif 
    376          }
    377          
    378          /** @brief PLL Calibration
    379           *        
    380           *
    381           *  Run the hardware calibration sequence for the PLL. At the end, the high speed
    382           * (30 MHz) clock is available. Because the timer is used, it is necessary to 
    383           *  make sure it isn't used if this routine is run at a time other than early boot.
    384           *
    385           *  @param None
    386           *  @return Void.
    387           */

   \                                 In section .text, align 2, keep-with-next
    388          void v_PLL_Calibration( void ) 
    389          {
   \                     v_PLL_Calibration: (+1)
   \   00000000   0xB4F8             PUSH     {R3-R7}
    390           
    391            NVIC_DisableIRQ( Timer0_IRQn ); 
   \   00000002   0x2080             MOVS     R0,#+128
   \   00000004   0x0240             LSLS     R0,R0,#+9        ;; #+65536
   \   00000006   0x....             LDR      R1,??DataTable6_9  ;; 0xe000e180
   \   00000008   0x6008             STR      R0,[R1, #+0]
    392            
    393            PMU_CLKCSR_t     clksrc;
    394          
    395            // clear PLL force if set
    396            _PMU->CLKCSR.PLLFORCE = 0;
   \   0000000A   0x20A0             MOVS     R0,#+160
   \   0000000C   0x05C0             LSLS     R0,R0,#+23       ;; #+1342177280
   \   0000000E   0x7801             LDRB     R1,[R0, #+0]
   \   00000010   0x22FD             MOVS     R2,#+253
   \   00000012   0x400A             ANDS     R2,R2,R1
   \   00000014   0x7002             STRB     R2,[R0, #+0]
    397           
    398            // Apply the ANAV1P5 to power PLL
    399            // CRG Registers:  PLL:  PLL_ENV1P5REG=1   
    400            CRG_SFRS->PLL.PLL_ENV1P5REG = 0x1;
   \   00000016   0x2101             MOVS     R1,#+1
   \   00000018   0x....             LDR      R2,??DataTable6_10  ;; 0x50015800
   \   0000001A   0x7813             LDRB     R3,[R2, #+0]
   \   0000001C   0x2401             MOVS     R4,#+1
   \   0000001E   0x431C             ORRS     R4,R4,R3
   \   00000020   0x7014             STRB     R4,[R2, #+0]
    401           
    402            // Wait 5ms @4MHz for power up
    403            TIMER0->CFG &= ~TIMER_CFG_ENA;             // stop the general purpose timer
   \   00000022   0x....             LDR      R2,??DataTable6_11  ;; 0x50020000
   \   00000024   0x23FE             MOVS     R3,#+254
   \   00000026   0x7914             LDRB     R4,[R2, #+4]
   \   00000028   0x401C             ANDS     R4,R4,R3
   \   0000002A   0x7114             STRB     R4,[R2, #+4]
    404            TIMER0->COUNT = -(5 * 4000);               // load with value for 5 msec delay @ 4 MHz, count up
   \   0000002C   0x....             LDR      R4,??DataTable6_12  ;; 0xffffb1e0
   \   0000002E   0x6014             STR      R4,[R2, #+0]
    405            TIMER0->CFG |= TIMER_CFG_ENA;              // turn on the general purpose timer. used for timeouts
   \   00000030   0x7914             LDRB     R4,[R2, #+4]
   \   00000032   0x2501             MOVS     R5,#+1
   \   00000034   0x4325             ORRS     R5,R5,R4
   \   00000036   0x7115             STRB     R5,[R2, #+4]
    406            while( (int32_t)TIMER0->COUNT < 0  ) {}    // wait for the timeout value
   \                     ??v_PLL_Calibration_0: (+1)
   \   00000038   0x6814             LDR      R4,[R2, #+0]
   \   0000003A   0x2C00             CMP      R4,#+0
   \   0000003C   0xD4FC             BMI      ??v_PLL_Calibration_0
    407           
    408            // Deassert PLL_RESET
    409            // This action results in the PLL being enabled with
    410            // an autocalibration based on the reset value of OST (0x5)
    411            _USBHUB->PORCTRL.PLLRST = 0;
   \   0000003E   0x....             LDR      R4,??DataTable6_13  ;; 0x5001301c
   \   00000040   0x7925             LDRB     R5,[R4, #+4]
   \   00000042   0x26DF             MOVS     R6,#+223
   \   00000044   0x402E             ANDS     R6,R6,R5
   \   00000046   0x7126             STRB     R6,[R4, #+4]
    412           
    413            // Wait for PLL to lock
    414             v_PLL_Wait();
   \   00000048   0x2500             MOVS     R5,#+0
   \   0000004A   0x9500             STR      R5,[SP, #+0]
   \   0000004C   0x9500             STR      R5,[SP, #+0]
   \   0000004E   0xE002             B        ??v_PLL_Calibration_1
   \                     ??v_PLL_Calibration_2: (+1)
   \   00000050   0x9E00             LDR      R6,[SP, #+0]
   \   00000052   0x1C76             ADDS     R6,R6,#+1
   \   00000054   0x9600             STR      R6,[SP, #+0]
   \                     ??v_PLL_Calibration_1: (+1)
   \   00000056   0x9E00             LDR      R6,[SP, #+0]
   \   00000058   0x....             LDR      R7,??DataTable6_14  ;; 0x1388
   \   0000005A   0x42BE             CMP      R6,R7
   \   0000005C   0xD203             BCS      ??v_PLL_Calibration_3
   \   0000005E   0x7806             LDRB     R6,[R0, #+0]
   \   00000060   0x08F7             LSRS     R7,R6,#+3
   \   00000062   0x420F             TST      R7,R1
   \   00000064   0xD0F4             BEQ      ??v_PLL_Calibration_2
    415            
    416            // At this point we have a 30MHz clock
    417           
    418            // Disable auto-calibration upon suspend-exit
    419            PLL_SFRS->CCR0.BYTE = 0x30;   
   \                     ??v_PLL_Calibration_3: (+1)
   \   00000066   0x....             LDR      R6,??DataTable6_15  ;; 0x50000054
   \   00000068   0x2730             MOVS     R7,#+48
   \   0000006A   0x7037             STRB     R7,[R6, #+0]
    420           
    421            // Toggle Suspend to deassert PLL_EN and then assert PLL_EN
    422            USBHUB->SUSPENDFORCE = 0x1; 
   \   0000006C   0x7021             STRB     R1,[R4, #+0]
    423            USBHUB->SUSPENDFORCE = 0x0;
   \   0000006E   0x7025             STRB     R5,[R4, #+0]
    424           
    425            // At this point we have a 4MHz clock
    426             
    427            // Wait time for XTAL to settle
    428            TIMER0->CFG &= ~TIMER_CFG_ENA;           // turn off the general purpose timer
   \   00000070   0x7914             LDRB     R4,[R2, #+4]
   \   00000072   0x401C             ANDS     R4,R4,R3
   \   00000074   0x7114             STRB     R4,[R2, #+4]
    429            TIMER0->COUNT = -(1 * 4000);             // load counter for 1 msec delay @ 4 MHz
   \   00000076   0x....             LDR      R4,??DataTable6_16  ;; 0xfffff060
   \   00000078   0x6014             STR      R4,[R2, #+0]
    430            TIMER0->CFG |= TIMER_CFG_ENA;            // turn on the general purpose timer. used for timeouts              // setup a 1ms timeout using the 4MHz clock
   \   0000007A   0x7914             LDRB     R4,[R2, #+4]
   \   0000007C   0x2701             MOVS     R7,#+1
   \   0000007E   0x4327             ORRS     R7,R7,R4
   \   00000080   0x7117             STRB     R7,[R2, #+4]
    431            while( (int32_t)TIMER0->COUNT < 0) {}    // wait for the timeout value
   \                     ??v_PLL_Calibration_4: (+1)
   \   00000082   0x6814             LDR      R4,[R2, #+0]
   \   00000084   0x2C00             CMP      R4,#+0
   \   00000086   0xD4FC             BMI      ??v_PLL_Calibration_4
    432           
    433            // OST, R and C values from flash map, should be default values for now.
    434            v_Program_PLL();
   \   00000088   0x....             LDR      R4,??DataTable6_17  ;; 0x27f16
   \   0000008A   0x7824             LDRB     R4,[R4, #+0]
   \   0000008C   0x0724             LSLS     R4,R4,#+28
   \   0000008E   0x0F24             LSRS     R4,R4,#+28
   \   00000090   0x27B0             MOVS     R7,#+176
   \   00000092   0x4327             ORRS     R7,R7,R4
   \   00000094   0x7037             STRB     R7,[R6, #+0]
   \   00000096   0x2452             MOVS     R4,#+82
   \   00000098   0x7034             STRB     R4,[R6, #+0]
   \   0000009A   0x2463             MOVS     R4,#+99
   \   0000009C   0x7034             STRB     R4,[R6, #+0]
   \   0000009E   0x2473             MOVS     R4,#+115
   \   000000A0   0x7034             STRB     R4,[R6, #+0]
   \   000000A2   0x2483             MOVS     R4,#+131
   \   000000A4   0x7034             STRB     R4,[R6, #+0]
    435          
    436            // Perform auto-calibration
    437            PLL_SFRS->CCR0.BYTE = 0xF0;   
   \   000000A6   0x24F0             MOVS     R4,#+240
   \   000000A8   0x7034             STRB     R4,[R6, #+0]
    438            
    439            // At this point we have a 4MHz clock which transitions to a 30MHz clock
    440            // once calibration is complete
    441            
    442            // Wait period for the auto-calibration to complete
    443            TIMER0->CFG &= ~TIMER_CFG_ENA;                         // turn off the general purpose timer
   \   000000AA   0x7914             LDRB     R4,[R2, #+4]
   \   000000AC   0x4023             ANDS     R3,R3,R4
   \   000000AE   0x7113             STRB     R3,[R2, #+4]
    444            TIMER0->COUNT = -(1 * 30000);                          // clear the counter desired counter value
   \   000000B0   0x....             LDR      R3,??DataTable6_18  ;; 0xffff8ad0
   \   000000B2   0x6013             STR      R3,[R2, #+0]
    445            TIMER0->CFG |= TIMER_CFG_ENA;                          // turn on the general purpose timer. used for timeouts               // setup a 1ms timeout using the 4MHz/30Mhz clock
   \   000000B4   0x7913             LDRB     R3,[R2, #+4]
   \   000000B6   0x2401             MOVS     R4,#+1
   \   000000B8   0x431C             ORRS     R4,R4,R3
   \   000000BA   0x7114             STRB     R4,[R2, #+4]
    446            while( (int32_t)TIMER0->COUNT < 0 ) {}                // wait for the timeout value
   \                     ??v_PLL_Calibration_5: (+1)
   \   000000BC   0x6813             LDR      R3,[R2, #+0]
   \   000000BE   0x2B00             CMP      R3,#+0
   \   000000C0   0xD4FC             BMI      ??v_PLL_Calibration_5
    447           
    448            // Wait for PLL to lock 
    449            v_PLL_Wait();
   \   000000C2   0x9500             STR      R5,[SP, #+0]
   \   000000C4   0x9500             STR      R5,[SP, #+0]
   \   000000C6   0xE002             B        ??v_PLL_Calibration_6
   \                     ??v_PLL_Calibration_7: (+1)
   \   000000C8   0x9A00             LDR      R2,[SP, #+0]
   \   000000CA   0x1C52             ADDS     R2,R2,#+1
   \   000000CC   0x9200             STR      R2,[SP, #+0]
   \                     ??v_PLL_Calibration_6: (+1)
   \   000000CE   0x9A00             LDR      R2,[SP, #+0]
   \   000000D0   0x....             LDR      R3,??DataTable6_14  ;; 0x1388
   \   000000D2   0x429A             CMP      R2,R3
   \   000000D4   0xD203             BCS      ??v_PLL_Calibration_8
   \   000000D6   0x7802             LDRB     R2,[R0, #+0]
   \   000000D8   0x08D2             LSRS     R2,R2,#+3
   \   000000DA   0x420A             TST      R2,R1
   \   000000DC   0xD0F4             BEQ      ??v_PLL_Calibration_7
    450          
    451            // At this point we have a 30MHz clock
    452            
    453            // set the PLL force
    454            clksrc.BYTE     = 0;
    455            clksrc.PLLFORCE = 1;
   \                     ??v_PLL_Calibration_8: (+1)
   \   000000DE   0x2102             MOVS     R1,#+2
   \   000000E0   0x466A             MOV      R2,SP
   \   000000E2   0x7011             STRB     R1,[R2, #+0]
    456            PMU->CLKCSR     = clksrc;
   \   000000E4   0x4669             MOV      R1,SP
   \   000000E6   0x780A             LDRB     R2,[R1, #0]
   \   000000E8   0x7002             STRB     R2,[R0, #0]
    457            
    458            SystemCoreClock = 30000000;
   \   000000EA   0x....             LDR      R0,??DataTable6_19  ;; 0x1c9c380
   \   000000EC   0x....             LDR      R1,??DataTable6_20
   \   000000EE   0x6008             STR      R0,[R1, #+0]
    459            
    460          }
   \   000000F0   0xBCF1             POP      {R0,R4-R7}
   \   000000F2   0x4770             BX       LR               ;; return
    461          
    462          
    463          /** @brief Bug Fixes for C0
    464           *        
    465           *
    466           *  Settings for the bug fix control register for C0. 
    467           *
    468           * 1) Set the value of register SUP_C0_BUGFIX_CTRL (0x50013310) with 0xDF
    469           *    TT_DISCONNECT_FIX = 1 on all ports
    470           *    WUCONN_FIX_DISABLE = 0 Fix for SUPR-91 is enabled
    471           *    CHANGE_BIT_CLEAR_FIX_DISABLE = 1 Fix for SUPR-87 is disabled
    472           *    PATCH_REMOTE_WAKEUP_N = 1 Disables fix for SUPR-134
    473           *   
    474           * 2) Set the value of register WUCONNTRIM (0x50013064) with 0x1
    475           * 3) Set the value of register TDCNN_TRIM (0x50013314) with 0x6
    476           *    Connect event time for down facing ports = 7.99 us.
    477           *
    478           *  @param None
    479           *  @return Void.
    480           */

   \                                 In section .text, align 2, keep-with-next
    481          void v_Apply_C0_USB_Fixes(void)
    482          {
    483              USBHUB_BUGFIX_CTRL->WORD = 0xdf;
   \                     v_Apply_C0_USB_Fixes: (+1)
   \   00000000   0x....             LDR      R0,??DataTable6  ;; 0x50013310
   \   00000002   0x21DF             MOVS     R1,#+223
   \   00000004   0x6001             STR      R1,[R0, #+0]
    484              USBHUB->WUCONN = 1;
   \   00000006   0x2101             MOVS     R1,#+1
   \   00000008   0x....             LDR      R2,??DataTable6_21  ;; 0x50013064
   \   0000000A   0x7011             STRB     R1,[R2, #+0]
    485              *USBHUB_TDCNN_TRIM_CTRL = 0x6;
   \   0000000C   0x2106             MOVS     R1,#+6
   \   0000000E   0x7101             STRB     R1,[R0, #+4]
    486          }
   \   00000010   0x4770             BX       LR               ;; return

   \                                 In section .text, align 4, keep-with-next
   \                     ??DataTable2:
   \   00000000   0x50016000         DC32     0x50016000

   \                                 In section .text, align 4, keep-with-next
   \                     ??DataTable2_1:
   \   00000000   0x50016500         DC32     0x50016500

   \                                 In section .text, align 4, keep-with-next
   \                     ??DataTable2_2:
   \   00000000   0x50013050         DC32     0x50013050

   \                                 In section .text, align 4, keep-with-next
   \                     ??DataTable2_3:
   \   00000000   0x0000FFC7         DC32     0xffc7

   \                                 In section .text, align 4, keep-with-next
   \                     ??DataTable2_4:
   \   00000000   0x0000FFF8         DC32     0xfff8

   \                                 In section .text, align 4, keep-with-next
   \                     ??DataTable2_5:
   \   00000000   0x50018003         DC32     0x50018003

   \                                 In section .text, align 4, keep-with-next
   \                     ??DataTable2_6:
   \   00000000   0x50016001         DC32     0x50016001

   \                                 In section .text, align 4, keep-with-next
   \                     ??DataTable2_7:
   \   00000000   0x50016021         DC32     0x50016021

   \                                 In section .text, align 4, keep-with-next
   \                     ??DataTable2_8:
   \   00000000   0x50014008         DC32     0x50014008

   \                                 In section .text, align 4, keep-with-next
   \                     ??DataTable2_9:
   \   00000000   0x50017040         DC32     0x50017040

   \                                 In section .text, align 4, keep-with-next
   \                     ??DataTable2_10:
   \   00000000   0x50017440         DC32     0x50017440

   \                                 In section .text, align 4, keep-with-next
   \                     ??DataTable2_11:
   \   00000000   0x00027F19         DC32     0x27f19

   \                                 In section .text, align 4, keep-with-next
   \                     ??DataTable2_12:
   \   00000000   0x50016507         DC32     0x50016507

   \                                 In section .text, align 4, keep-with-next
   \                     ??DataTable2_13:
   \   00000000   0x00027F09         DC32     0x27f09

   \                                 In section .text, align 4, keep-with-next
   \                     ??DataTable2_14:
   \   00000000   0xFFFFFE1F         DC32     0xfffffe1f

   \                                 In section .text, align 4, keep-with-next
   \                     ??DataTable3:
   \   00000000   0x00027F10         DC32     0x27f10

   \                                 In section .text, align 4, keep-with-next
   \                     ??DataTable3_1:
   \   00000000   0x50015029         DC32     0x50015029

   \                                 In section .text, align 4, keep-with-next
   \                     ??DataTable3_2:
   \   00000000   0x50018004         DC32     0x50018004

   \                                 In section .text, align 4, keep-with-next
   \                     ??DataTable3_3:
   \   00000000   0x50016507         DC32     0x50016507

   \                                 In section .text, align 4, keep-with-next
   \                     ??DataTable3_4:
   \   00000000   0x50016026         DC32     0x50016026

   \                                 In section .text, align 4, keep-with-next
   \                     ??DataTable3_5:
   \   00000000   0x50016002         DC32     0x50016002

   \                                 In section .text, align 4, keep-with-next
   \                     ??DataTable3_6:
   \   00000000   0x0000FFF8         DC32     0xfff8

   \                                 In section .text, align 4, keep-with-next
   \                     ??DataTable4:
   \   00000000   0x0000FFC7         DC32     0xffc7

   \                                 In section .text, align 4, keep-with-next
   \                     ??DataTable4_1:
   \   00000000   0x0000F0FF         DC32     0xf0ff

   \                                 In section .text, align 4, keep-with-next
   \                     ??DataTable4_2:
   \   00000000   0x00027F30         DC32     0x27f30

   \                                 In section .text, align 4, keep-with-next
   \                     ??DataTable4_3:
   \   00000000   0x50013050         DC32     0x50013050

   \                                 In section .text, align 4, keep-with-next
   \                     ??DataTable6:
   \   00000000   0x50013310         DC32     0x50013310

   \                                 In section .text, align 4, keep-with-next
   \                     ??DataTable6_1:
   \   00000000   0x50016026         DC32     0x50016026

   \                                 In section .text, align 4, keep-with-next
   \                     ??DataTable6_2:
   \   00000000   0x50016022         DC32     0x50016022

   \                                 In section .text, align 4, keep-with-next
   \                     ??DataTable6_3:
   \   00000000   0x0000FFF8         DC32     0xfff8

   \                                 In section .text, align 4, keep-with-next
   \                     ??DataTable6_4:
   \   00000000   0x50016517         DC32     0x50016517

   \                                 In section .text, align 4, keep-with-next
   \                     ??DataTable6_5:
   \   00000000   0x50013058         DC32     0x50013058

   \                                 In section .text, align 4, keep-with-next
   \                     ??DataTable6_6:
   \   00000000   0x50016036         DC32     0x50016036

   \                                 In section .text, align 4, keep-with-next
   \                     ??DataTable6_7:
   \   00000000   0x5001651F         DC32     0x5001651f

   \                                 In section .text, align 4, keep-with-next
   \                     ??DataTable6_8:
   \   00000000   0x5001305C         DC32     0x5001305c

   \                                 In section .text, align 4, keep-with-next
   \                     ??DataTable6_9:
   \   00000000   0xE000E180         DC32     0xe000e180

   \                                 In section .text, align 4, keep-with-next
   \                     ??DataTable6_10:
   \   00000000   0x50015800         DC32     0x50015800

   \                                 In section .text, align 4, keep-with-next
   \                     ??DataTable6_11:
   \   00000000   0x50020000         DC32     0x50020000

   \                                 In section .text, align 4, keep-with-next
   \                     ??DataTable6_12:
   \   00000000   0xFFFFB1E0         DC32     0xffffb1e0

   \                                 In section .text, align 4, keep-with-next
   \                     ??DataTable6_13:
   \   00000000   0x5001301C         DC32     0x5001301c

   \                                 In section .text, align 4, keep-with-next
   \                     ??DataTable6_14:
   \   00000000   0x00001388         DC32     0x1388

   \                                 In section .text, align 4, keep-with-next
   \                     ??DataTable6_15:
   \   00000000   0x50000054         DC32     0x50000054

   \                                 In section .text, align 4, keep-with-next
   \                     ??DataTable6_16:
   \   00000000   0xFFFFF060         DC32     0xfffff060

   \                                 In section .text, align 4, keep-with-next
   \                     ??DataTable6_17:
   \   00000000   0x00027F16         DC32     0x27f16

   \                                 In section .text, align 4, keep-with-next
   \                     ??DataTable6_18:
   \   00000000   0xFFFF8AD0         DC32     0xffff8ad0

   \                                 In section .text, align 4, keep-with-next
   \                     ??DataTable6_19:
   \   00000000   0x01C9C380         DC32     0x1c9c380

   \                                 In section .text, align 4, keep-with-next
   \                     ??DataTable6_20:
   \   00000000   0x........         DC32     SystemCoreClock

   \                                 In section .text, align 4, keep-with-next
   \                     ??DataTable6_21:
   \   00000000   0x50013064         DC32     0x50013064
    487          

   Maximum stack usage in bytes:

   .cstack Function
   ------- --------
      16   USBAFE_setCDRTrims
        16   -> dbgTrapErr
       0   v_Apply_C0_USB_Fixes
      48   v_Apply_Trims_From_Flash
        48   -> v_Get_Chip_Info
       8   v_Basic_Trims_From_Flash
      24   v_Default_CDR_Setup
        24   -> USBAFE_setCDRTrims
       8   v_Dump_Trim_Memory
      20   v_PLL_Calibration


   Section sizes:

   Bytes  Function/Label
   -----  --------------
       4  ??DataTable2
       4  ??DataTable2_1
       4  ??DataTable2_10
       4  ??DataTable2_11
       4  ??DataTable2_12
       4  ??DataTable2_13
       4  ??DataTable2_14
       4  ??DataTable2_2
       4  ??DataTable2_3
       4  ??DataTable2_4
       4  ??DataTable2_5
       4  ??DataTable2_6
       4  ??DataTable2_7
       4  ??DataTable2_8
       4  ??DataTable2_9
       4  ??DataTable3
       4  ??DataTable3_1
       4  ??DataTable3_2
       4  ??DataTable3_3
       4  ??DataTable3_4
       4  ??DataTable3_5
       4  ??DataTable3_6
       4  ??DataTable4
       4  ??DataTable4_1
       4  ??DataTable4_2
       4  ??DataTable4_3
       4  ??DataTable6
       4  ??DataTable6_1
       4  ??DataTable6_10
       4  ??DataTable6_11
       4  ??DataTable6_12
       4  ??DataTable6_13
       4  ??DataTable6_14
       4  ??DataTable6_15
       4  ??DataTable6_16
       4  ??DataTable6_17
       4  ??DataTable6_18
       4  ??DataTable6_19
       4  ??DataTable6_2
       4  ??DataTable6_20
       4  ??DataTable6_21
       4  ??DataTable6_3
       4  ??DataTable6_4
       4  ??DataTable6_5
       4  ??DataTable6_6
       4  ??DataTable6_7
       4  ??DataTable6_8
       4  ??DataTable6_9
     142  USBAFE_setCDRTrims
       4  u32_Flash_Value
       4  u32_Value
      18  v_Apply_C0_USB_Fixes
     816  v_Apply_Trims_From_Flash
     138  v_Basic_Trims_From_Flash
     152  v_Default_CDR_Setup
     138  v_Dump_Trim_Memory
     244  v_PLL_Calibration

 
     8 bytes in section .bss
 1 840 bytes in section .text
 
 1 840 bytes of CODE memory
     8 bytes of DATA memory

Errors: none
Warnings: none
