###############################################################################
#
# IAR ANSI C/C++ Compiler V7.40.7.9843/W32 for ARM        18/Dec/2019  15:12:37
# Copyright 1999-2015 IAR Systems AB.
#
#    Cpu mode     =  thumb
#    Endian       =  little
#    Source file  =  
#        C:\Users\Ian\Desktop\Projects\hub
#        project\hub\clang\source\debug_gpio.c
#    Command line =  
#        "C:\Users\Ian\Desktop\Projects\hub
#        project\hub\clang\source\debug_gpio.c" -D RESISTANCE_TRIMS -D
#        AFE_TRIMS -D USB_TRIMS -D NDEBUG -lC
#        "C:\Users\Ian\Desktop\Projects\hub
#        project\hub\toolchain\iar\project\Release\List" -o
#        "C:\Users\Ian\Desktop\Projects\hub
#        project\hub\toolchain\iar\project\Release\Obj" --endian=little
#        --cpu=Cortex-M0 -e --fpu=None --dlib_config "C:\Program Files
#        (x86)\IAR Systems\Embedded Workbench
#        7.2\arm\INC\c\DLib_Config_Normal.h" -I
#        "C:\Users\Ian\Desktop\Projects\hub
#        project\hub\toolchain\iar\project\..\..\..\clang\include\" -I
#        "C:\Users\Ian\Desktop\Projects\hub
#        project\hub\toolchain\iar\project\..\..\..\clang\include\superior\clough\"
#        -I "C:\Users\Ian\Desktop\Projects\hub
#        project\hub\toolchain\iar\project\..\..\..\clang\include\superior\sfr\"
#        -I "C:\Users\Ian\Desktop\Projects\hub
#        project\hub\toolchain\iar\project\..\..\..\clang\include\superior\" -I
#        "C:\Users\Ian\Desktop\Projects\hub
#        project\hub\toolchain\iar\project\..\SEGGER_RTT_V640\RTT\" -I
#        "C:\Users\Ian\Desktop\Projects\hub
#        project\hub\toolchain\iar\project\..\..\..\clang\source\FreeRTOS\" -Oh
#        -I "C:\Program Files (x86)\IAR Systems\Embedded Workbench
#        7.2\arm\CMSIS\Include\"
#    List file    =  
#        C:\Users\Ian\Desktop\Projects\hub
#        project\hub\toolchain\iar\project\Release\List\debug_gpio.lst
#    Object file  =  
#        C:\Users\Ian\Desktop\Projects\hub
#        project\hub\toolchain\iar\project\Release\Obj\debug_gpio.o
#
###############################################################################

C:\Users\Ian\Desktop\Projects\hub project\hub\clang\source\debug_gpio.c
      1          #include "superior/superior.h"
      2          #include "superior/sfr/nvmtrim.h"
      3          
      4          #include "debug_gpio.h"
      5          
      6          #if defined( USE_DEBUG_GPIOS ) && !defined( NDEBUG )
      7          #pragma message("***J1206 GPIOs in use for debug***")
      8          #endif
      9          
     10          /** @brief Initializes use of SD card related GPIOs for debug
     11           *        
     12           *
     13           *  For use with the Superior eval board. Can use the SD card related
     14           *  GPIOs on J1206 for debug to observe events or timing.
     15           *  
     16           *  @param[in] args A pointer to structure containing arguments to initialize hub task.
     17           *  @return Void.
     18           */

   \                                 In section .text, align 2, keep-with-next
     19          void _v_Init_Debug_GPIO(void)
     20          {
   \                     _v_Init_Debug_GPIO: (+1)
   \   00000000   0xB470             PUSH     {R4-R6}
     21             // Taken from APP note
     22            TRIMMEMORY_SFRS->TRIMDATA0.CARDPOWERFILTEN = 0;
   \   00000002   0x....             LDR      R0,??DataTable1  ;; 0x50018000
   \   00000004   0x7881             LDRB     R1,[R0, #+2]
   \   00000006   0x22EF             MOVS     R2,#+239
   \   00000008   0x400A             ANDS     R2,R2,R1
   \   0000000A   0x7082             STRB     R2,[R0, #+2]
     23            TRIMMEMORY_SFRS->TRIMDATA0.CARDPOWERFWVAL = 0;
   \   0000000C   0x21F7             MOVS     R1,#+247
   \   0000000E   0x7882             LDRB     R2,[R0, #+2]
   \   00000010   0x400A             ANDS     R2,R2,R1
   \   00000012   0x7082             STRB     R2,[R0, #+2]
     24            TRIMMEMORY_SFRS->TRIMDATA0.CARDPOWERFWCTL = 1;
   \   00000014   0x7882             LDRB     R2,[R0, #+2]
   \   00000016   0x2304             MOVS     R3,#+4
   \   00000018   0x4313             ORRS     R3,R3,R2
   \   0000001A   0x7083             STRB     R3,[R0, #+2]
     25            TRIMMEMORY_SFRS->TRIMDATA0.CARDPOWEREN = 0;
   \   0000001C   0x7882             LDRB     R2,[R0, #+2]
   \   0000001E   0x23FD             MOVS     R3,#+253
   \   00000020   0x4013             ANDS     R3,R3,R2
   \   00000022   0x7083             STRB     R3,[R0, #+2]
     26          
     27            TRIMMEMORY_SFRS->TRIMDATA0.OCP3P3NFW = 0;
   \   00000024   0x7842             LDRB     R2,[R0, #+1]
   \   00000026   0x4011             ANDS     R1,R1,R2
   \   00000028   0x7041             STRB     R1,[R0, #+1]
     28            TRIMMEMORY_SFRS->TRIMDATA0.O3P31P8NFW = 0;
   \   0000002A   0x7841             LDRB     R1,[R0, #+1]
   \   0000002C   0x22FE             MOVS     R2,#+254
   \   0000002E   0x400A             ANDS     R2,R2,R1
   \   00000030   0x7042             STRB     R2,[R0, #+1]
     29            TRIMMEMORY_SFRS->TRIMDATA0.OCP3P3N1P8FW = 0;
   \   00000032   0x7841             LDRB     R1,[R0, #+1]
   \   00000034   0x22FB             MOVS     R2,#+251
   \   00000036   0x400A             ANDS     R2,R2,R1
   \   00000038   0x7042             STRB     R2,[R0, #+1]
     30            TRIMMEMORY_SFRS->TRIMDATA0.OGNDNFW3V = 1;
   \   0000003A   0x7801             LDRB     R1,[R0, #+0]
   \   0000003C   0x2240             MOVS     R2,#+64
   \   0000003E   0x430A             ORRS     R2,R2,R1
   \   00000040   0x7002             STRB     R2,[R0, #+0]
     31            TRIMMEMORY_SFRS->TRIMDATA0.Q0BIT0 = 1;
   \   00000042   0x2101             MOVS     R1,#+1
   \   00000044   0x7802             LDRB     R2,[R0, #+0]
   \   00000046   0x430A             ORRS     R2,R2,R1
   \   00000048   0x7002             STRB     R2,[R0, #+0]
     32            TRIMMEMORY_SFRS->TRIMDATA0.Q0BIT1 = 1;
   \   0000004A   0x7802             LDRB     R2,[R0, #+0]
   \   0000004C   0x2302             MOVS     R3,#+2
   \   0000004E   0x4313             ORRS     R3,R3,R2
   \   00000050   0x7003             STRB     R3,[R0, #+0]
     33            
     34             // GPIO10
     35            IOCTRL_SFRS->GPIO10CTRL.GP10MODE = 0;
   \   00000052   0x20FC             MOVS     R0,#+252
   \   00000054   0x....             LDR      R2,??DataTable1_1  ;; 0x50014c24
   \   00000056   0x7813             LDRB     R3,[R2, #+0]
   \   00000058   0x4003             ANDS     R3,R3,R0
   \   0000005A   0x7013             STRB     R3,[R2, #+0]
     36            IOCTRL_SFRS->GPIO10CTRL.GP10OE = 1;
   \   0000005C   0x2310             MOVS     R3,#+16
   \   0000005E   0x7814             LDRB     R4,[R2, #+0]
   \   00000060   0x431C             ORRS     R4,R4,R3
   \   00000062   0x7014             STRB     R4,[R2, #+0]
     37            GPIO_SFRS->GPBP03.GPBDIR1 = 1; 
   \   00000064   0x....             LDR      R4,??DataTable1_2  ;; 0x5001d009
   \   00000066   0x7825             LDRB     R5,[R4, #+0]
   \   00000068   0x430D             ORRS     R5,R5,R1
   \   0000006A   0x7025             STRB     R5,[R4, #+0]
     38            
     39            // GPIO11
     40            IOCTRL_SFRS->GPIO11CTRL.GP11MODE = 0;
   \   0000006C   0x25F8             MOVS     R5,#+248
   \   0000006E   0x7916             LDRB     R6,[R2, #+4]
   \   00000070   0x402E             ANDS     R6,R6,R5
   \   00000072   0x7116             STRB     R6,[R2, #+4]
     41            IOCTRL_SFRS->GPIO11CTRL.GP11OE = 1;
   \   00000074   0x7916             LDRB     R6,[R2, #+4]
   \   00000076   0x431E             ORRS     R6,R6,R3
   \   00000078   0x7116             STRB     R6,[R2, #+4]
     42            GPIO_SFRS->GPBP03.GPBDIR2 = 1; 
   \   0000007A   0x7866             LDRB     R6,[R4, #+1]
   \   0000007C   0x430E             ORRS     R6,R6,R1
   \   0000007E   0x7066             STRB     R6,[R4, #+1]
     43            
     44            // GPIO12
     45            IOCTRL_SFRS->GPIO12CTRL.GP12MODE = 0;
   \   00000080   0x7A16             LDRB     R6,[R2, #+8]
   \   00000082   0x4006             ANDS     R6,R6,R0
   \   00000084   0x7216             STRB     R6,[R2, #+8]
     46            IOCTRL_SFRS->GPIO12CTRL.GP12OE = 1;
   \   00000086   0x7A16             LDRB     R6,[R2, #+8]
   \   00000088   0x431E             ORRS     R6,R6,R3
   \   0000008A   0x7216             STRB     R6,[R2, #+8]
     47            GPIO_SFRS->GPBP03.GPBDIR3 = 1; 
   \   0000008C   0x78A6             LDRB     R6,[R4, #+2]
   \   0000008E   0x430E             ORRS     R6,R6,R1
   \   00000090   0x70A6             STRB     R6,[R4, #+2]
     48            
     49            // GPIO13
     50            IOCTRL_SFRS->GPIO13CTRL.GP13MODE = 0;
   \   00000092   0x7B16             LDRB     R6,[R2, #+12]
   \   00000094   0x4006             ANDS     R6,R6,R0
   \   00000096   0x7316             STRB     R6,[R2, #+12]
     51            IOCTRL_SFRS->GPIO13CTRL.GP13OE = 1;
   \   00000098   0x7B16             LDRB     R6,[R2, #+12]
   \   0000009A   0x431E             ORRS     R6,R6,R3
   \   0000009C   0x7316             STRB     R6,[R2, #+12]
     52            GPIO_SFRS->GPBP47.GPBDIR4 = 1;
   \   0000009E   0x78E6             LDRB     R6,[R4, #+3]
   \   000000A0   0x430E             ORRS     R6,R6,R1
   \   000000A2   0x70E6             STRB     R6,[R4, #+3]
     53            
     54            // GPIO14
     55            IOCTRL_SFRS->GPIO14CTRL.GP14MODE = 0;
   \   000000A4   0x7C16             LDRB     R6,[R2, #+16]
   \   000000A6   0x4030             ANDS     R0,R0,R6
   \   000000A8   0x7410             STRB     R0,[R2, #+16]
     56            IOCTRL_SFRS->GPIO14CTRL.GP14OE = 1;
   \   000000AA   0x7C10             LDRB     R0,[R2, #+16]
   \   000000AC   0x4318             ORRS     R0,R0,R3
   \   000000AE   0x7410             STRB     R0,[R2, #+16]
     57            GPIO_SFRS->GPBP47.GPBDIR5 = 1;
   \   000000B0   0x7920             LDRB     R0,[R4, #+4]
   \   000000B2   0x4308             ORRS     R0,R0,R1
   \   000000B4   0x7120             STRB     R0,[R4, #+4]
     58            
     59            // GPIO15
     60            IOCTRL_SFRS->GPIO15CTRL.GP15MODE = 0;
   \   000000B6   0x7D10             LDRB     R0,[R2, #+20]
   \   000000B8   0x4005             ANDS     R5,R5,R0
   \   000000BA   0x7515             STRB     R5,[R2, #+20]
     61            IOCTRL_SFRS->GPIO15CTRL.GP15OE = 1;
   \   000000BC   0x7D10             LDRB     R0,[R2, #+20]
   \   000000BE   0x4303             ORRS     R3,R3,R0
   \   000000C0   0x7513             STRB     R3,[R2, #+20]
     62            GPIO_SFRS->GPBP47.GPBDIR6 = 1;
   \   000000C2   0x7960             LDRB     R0,[R4, #+5]
   \   000000C4   0x4301             ORRS     R1,R1,R0
   \   000000C6   0x7161             STRB     R1,[R4, #+5]
     63            
     64            // Initially clear all of the lines
     65            v_Set_Debug_GPIO( 0, DEBUG_GPIOS );
     66           
     67          }
   \   000000C8   0xBC70             POP      {R4-R6}
   \   000000CA   0x4770             BX       LR               ;; return
     68          
     69          /** @brief Set and clear GPIOs on J1206
     70           *        
     71           *
     72           *  For use with the Superior eval board. Can use the SD card related
     73           *  GPIOs on J1206 for debug to observe events or timing. If a GPIO is listed
     74           *  in both set and clear, a short (3-4 uS) pulse is generated (when 30 MHz clock is used).
     75           *  
     76           *  @param[in] u8_Set Bitmask for GPIOs to set
     77           *  @param[in] u8_Clear Bitmask for GPIOs to clear
     78           *
     79           *  @return Void.
     80           */

   \                                 In section .text, align 2, keep-with-next
     81          void _v_Set_Debug_GPIO( uint8_t u8_Set, uint8_t u8_Clear )
     82          {
   \                     _v_Set_Debug_GPIO: (+1)
   \   00000000   0xB410             PUSH     {R4}
     83            volatile uint32_t *pu32_Base_Address = (uint32_t *)GPIO_SFRS->GPBDATA;
     84            volatile uint32_t *pu32_Set_Address, *pu32_Clear_Address;
     85            
     86            // Set
     87            if( DEBUG_GPIOS & u8_Set )
   \   00000002   0x227E             MOVS     R2,#+126
   \   00000004   0x4210             TST      R0,R2
   \   00000006   0xD002             BEQ      ??_v_Set_Debug_GPIO_0
     88            {
     89              pu32_Set_Address = pu32_Base_Address + u8_Set; // Shift the address for mask
     90              *pu32_Set_Address = u8_Set;
   \   00000008   0x....             LDR      R3,??DataTable1_3  ;; 0x5001c400
   \   0000000A   0x0084             LSLS     R4,R0,#+2
   \   0000000C   0x5118             STR      R0,[R3, R4]
     91            }
     92            
     93            // Clear
     94            if( DEBUG_GPIOS & u8_Clear )
   \                     ??_v_Set_Debug_GPIO_0: (+1)
   \   0000000E   0x4211             TST      R1,R2
   \   00000010   0xD003             BEQ      ??_v_Set_Debug_GPIO_1
     95            {
     96              pu32_Clear_Address = pu32_Base_Address + u8_Clear; // Shift the address for mask
     97              *pu32_Clear_Address = ~u8_Clear;
   \   00000012   0x43C8             MVNS     R0,R1
   \   00000014   0x....             LDR      R2,??DataTable1_3  ;; 0x5001c400
   \   00000016   0x0089             LSLS     R1,R1,#+2
   \   00000018   0x5050             STR      R0,[R2, R1]
     98            }
     99            
    100          }
   \                     ??_v_Set_Debug_GPIO_1: (+1)
   \   0000001A   0xBC10             POP      {R4}
   \   0000001C   0x4770             BX       LR               ;; return

   \                                 In section .text, align 4, keep-with-next
   \                     ??DataTable1:
   \   00000000   0x50018000         DC32     0x50018000

   \                                 In section .text, align 4, keep-with-next
   \                     ??DataTable1_1:
   \   00000000   0x50014C24         DC32     0x50014c24

   \                                 In section .text, align 4, keep-with-next
   \                     ??DataTable1_2:
   \   00000000   0x5001D009         DC32     0x5001d009

   \                                 In section .text, align 4, keep-with-next
   \                     ??DataTable1_3:
   \   00000000   0x5001C400         DC32     0x5001c400

   Maximum stack usage in bytes:

   .cstack Function
   ------- --------
      12   _v_Init_Debug_GPIO
       4   _v_Set_Debug_GPIO


   Section sizes:

   Bytes  Function/Label
   -----  --------------
       4  ??DataTable1
       4  ??DataTable1_1
       4  ??DataTable1_2
       4  ??DataTable1_3
     204  _v_Init_Debug_GPIO
      30  _v_Set_Debug_GPIO

 
 250 bytes in section .text
 
 250 bytes of CODE memory

Errors: none
Warnings: none
