###############################################################################
#
# IAR ANSI C/C++ Compiler V7.40.7.9843/W32 for ARM        20/Dec/2019  17:18:59
# Copyright 1999-2015 IAR Systems AB.
#
#    Cpu mode     =  thumb
#    Endian       =  little
#    Source file  =  
#        C:\Users\Ian\Desktop\Projects\hub project\hub\clang\source\test.c
#    Command line =  
#        "C:\Users\Ian\Desktop\Projects\hub project\hub\clang\source\test.c" -D
#        RESISTANCE_TRIMS -D AFE_TRIMS -D USB_TRIMS -D USE_DEBUG_GPIOS -D
#        USE_PD -lC "C:\Users\Ian\Desktop\Projects\hub
#        project\hub\toolchain\iar\project\Debug\List" -o
#        "C:\Users\Ian\Desktop\Projects\hub
#        project\hub\toolchain\iar\project\Debug\Obj" --no_cse --no_unroll
#        --no_inline --no_code_motion --no_tbaa --no_clustering --no_scheduling
#        --debug --endian=little --cpu=Cortex-M0 -e --fpu=None --dlib_config
#        "C:\Program Files (x86)\IAR Systems\Embedded Workbench
#        7.2\arm\INC\c\DLib_Config_Normal.h" -I
#        "C:\Users\Ian\Desktop\Projects\hub
#        project\hub\toolchain\iar\project\..\..\..\clang\include\" -I
#        "C:\Users\Ian\Desktop\Projects\hub
#        project\hub\toolchain\iar\project\..\..\..\clang\include\superior\clough\"
#        -I "C:\Users\Ian\Desktop\Projects\hub
#        project\hub\toolchain\iar\project\..\..\..\clang\include\superior\sfr\"
#        -I "C:\Users\Ian\Desktop\Projects\hub
#        project\hub\toolchain\iar\project\..\..\..\clang\include\superior\" -I
#        "C:\Users\Ian\Desktop\Projects\hub
#        project\hub\toolchain\iar\project\..\SEGGER_RTT_V640\RTT\" -I
#        "C:\Users\Ian\Desktop\Projects\hub
#        project\hub\toolchain\iar\project\..\..\..\clang\source\FreeRTOS\" -On
#        -I "C:\Program Files (x86)\IAR Systems\Embedded Workbench
#        7.2\arm\CMSIS\Include\"
#    List file    =  
#        C:\Users\Ian\Desktop\Projects\hub
#        project\hub\toolchain\iar\project\Debug\List\test.lst
#    Object file  =  
#        C:\Users\Ian\Desktop\Projects\hub
#        project\hub\toolchain\iar\project\Debug\Obj\test.o
#
###############################################################################

C:\Users\Ian\Desktop\Projects\hub project\hub\clang\source\test.c
      1          #include "superior.h"
      2          #include "FreeRTOS.h"
      3          #include "PD_Port.h"
      4          #include "events.h"
      5          #include "debug_gpio.h"
      6          
      7          void v_Start_Timer( PD_Port_t *p_Port, TickType_t Timeout );
      8          

   \                                 In section .text, align 4, keep-with-next
      9          void v_Test_Task(void *args )
     10          {
   \                     v_Test_Task: (+1)
   \   00000000   0xB538             PUSH     {R3-R5,LR}
   \   00000002   0x0004             MOVS     R4,R0
     11            static uint32_t test_cnt;
     12            
     13          #pragma diag_suppress = Pe177
     14            PD_Port_t *p_Port = (PD_Port_t *)args;
   \   00000004   0x0025             MOVS     R5,R4
     15            
     16            while(1)
     17            {
     18              vTaskDelay( 1000 );  
   \                     ??v_Test_Task_0: (+1)
   \   00000006   0x20FA             MOVS     R0,#+250
   \   00000008   0x0080             LSLS     R0,R0,#+2        ;; #+1000
   \   0000000A   0x.... 0x....      BL       vTaskDelay
     19              //v_Start_Timer( p_Port, 100 );
     20              test_cnt++;
   \   0000000E   0x4803             LDR      R0,??v_Test_Task_1
   \   00000010   0x6800             LDR      R0,[R0, #+0]
   \   00000012   0x1C40             ADDS     R0,R0,#+1
   \   00000014   0x4901             LDR      R1,??v_Test_Task_1
   \   00000016   0x6008             STR      R0,[R1, #+0]
   \   00000018   0xE7F5             B        ??v_Test_Task_0
   \   0000001A   0xBF00             Nop      
   \                     ??v_Test_Task_1:
   \   0000001C   0x........         DC32     ??test_cnt
     21            }
     22          }

   \                                 In section .bss, align 4
   \                     ??test_cnt:
   \   00000000                      DS8 4

   Maximum stack usage in bytes:

   .cstack Function
   ------- --------
      16   v_Test_Task
        16   -> vTaskDelay


   Section sizes:

   Bytes  Function/Label
   -----  --------------
       4  test_cnt
      32  v_Test_Task

 
  4 bytes in section .bss
 32 bytes in section .text
 
 32 bytes of CODE memory
  4 bytes of DATA memory

Errors: none
Warnings: none
